{
  "contractName": "freelancer",
  "abi": [
    {
      "anonymous": false,
      "inputs": [
        {
          "indexed": false,
          "internalType": "uint256",
          "name": "checkid",
          "type": "uint256"
        },
        {
          "indexed": false,
          "internalType": "uint256",
          "name": "bid_id",
          "type": "uint256"
        },
        {
          "indexed": false,
          "internalType": "string",
          "name": "name",
          "type": "string"
        },
        {
          "indexed": false,
          "internalType": "string",
          "name": "message",
          "type": "string"
        },
        {
          "indexed": false,
          "internalType": "uint256",
          "name": "price",
          "type": "uint256"
        },
        {
          "indexed": false,
          "internalType": "address payable",
          "name": "bidder",
          "type": "address"
        },
        {
          "indexed": false,
          "internalType": "bool",
          "name": "status",
          "type": "bool"
        }
      ],
      "name": "Approved",
      "type": "event"
    },
    {
      "anonymous": false,
      "inputs": [
        {
          "indexed": false,
          "internalType": "uint256",
          "name": "id",
          "type": "uint256"
        },
        {
          "indexed": false,
          "internalType": "string",
          "name": "name",
          "type": "string"
        },
        {
          "indexed": false,
          "internalType": "string",
          "name": "des",
          "type": "string"
        },
        {
          "indexed": false,
          "internalType": "string",
          "name": "type1",
          "type": "string"
        },
        {
          "indexed": false,
          "internalType": "address payable",
          "name": "owner",
          "type": "address"
        },
        {
          "indexed": false,
          "internalType": "string",
          "name": "status",
          "type": "string"
        },
        {
          "indexed": false,
          "internalType": "bool",
          "name": "purchased",
          "type": "bool"
        }
      ],
      "name": "Rent",
      "type": "event"
    },
    {
      "anonymous": false,
      "inputs": [
        {
          "indexed": false,
          "internalType": "uint256",
          "name": "id",
          "type": "uint256"
        },
        {
          "indexed": false,
          "internalType": "string",
          "name": "name",
          "type": "string"
        },
        {
          "indexed": false,
          "internalType": "string",
          "name": "des",
          "type": "string"
        },
        {
          "indexed": false,
          "internalType": "string",
          "name": "type1",
          "type": "string"
        },
        {
          "indexed": false,
          "internalType": "string",
          "name": "status",
          "type": "string"
        },
        {
          "indexed": false,
          "internalType": "bool",
          "name": "purchased",
          "type": "bool"
        }
      ],
      "name": "Sale",
      "type": "event"
    },
    {
      "anonymous": false,
      "inputs": [
        {
          "indexed": false,
          "internalType": "uint256",
          "name": "checkid",
          "type": "uint256"
        },
        {
          "indexed": false,
          "internalType": "uint256",
          "name": "bid_id",
          "type": "uint256"
        },
        {
          "indexed": false,
          "internalType": "string",
          "name": "name",
          "type": "string"
        },
        {
          "indexed": false,
          "internalType": "string",
          "name": "message",
          "type": "string"
        },
        {
          "indexed": false,
          "internalType": "uint256",
          "name": "price",
          "type": "uint256"
        },
        {
          "indexed": false,
          "internalType": "address payable",
          "name": "bidder",
          "type": "address"
        },
        {
          "indexed": false,
          "internalType": "bool",
          "name": "status",
          "type": "bool"
        }
      ],
      "name": "bidCreated",
      "type": "event"
    },
    {
      "anonymous": false,
      "inputs": [
        {
          "indexed": false,
          "internalType": "uint256",
          "name": "bid_id",
          "type": "uint256"
        },
        {
          "indexed": false,
          "internalType": "string",
          "name": "name",
          "type": "string"
        },
        {
          "indexed": false,
          "internalType": "string",
          "name": "message",
          "type": "string"
        },
        {
          "indexed": false,
          "internalType": "uint256",
          "name": "price",
          "type": "uint256"
        },
        {
          "indexed": false,
          "internalType": "address payable",
          "name": "bidder",
          "type": "address"
        }
      ],
      "name": "bidPurchased",
      "type": "event"
    },
    {
      "anonymous": false,
      "inputs": [
        {
          "indexed": false,
          "internalType": "uint256",
          "name": "id",
          "type": "uint256"
        },
        {
          "indexed": false,
          "internalType": "uint256",
          "name": "p_id",
          "type": "uint256"
        },
        {
          "indexed": false,
          "internalType": "address payable",
          "name": "new_owner",
          "type": "address"
        },
        {
          "indexed": false,
          "internalType": "uint256",
          "name": "time",
          "type": "uint256"
        }
      ],
      "name": "ledgerCreated",
      "type": "event"
    },
    {
      "anonymous": false,
      "inputs": [
        {
          "indexed": false,
          "internalType": "uint256",
          "name": "id",
          "type": "uint256"
        },
        {
          "indexed": false,
          "internalType": "string",
          "name": "name",
          "type": "string"
        },
        {
          "indexed": false,
          "internalType": "string",
          "name": "des",
          "type": "string"
        },
        {
          "indexed": false,
          "internalType": "string",
          "name": "type1",
          "type": "string"
        },
        {
          "indexed": false,
          "internalType": "address payable",
          "name": "owner",
          "type": "address"
        },
        {
          "indexed": false,
          "internalType": "string",
          "name": "location",
          "type": "string"
        },
        {
          "indexed": false,
          "internalType": "uint256",
          "name": "time",
          "type": "uint256"
        },
        {
          "indexed": false,
          "internalType": "string",
          "name": "status",
          "type": "string"
        },
        {
          "indexed": false,
          "internalType": "bool",
          "name": "bstatus",
          "type": "bool"
        },
        {
          "indexed": false,
          "internalType": "bool",
          "name": "purchased",
          "type": "bool"
        }
      ],
      "name": "propertyCreated",
      "type": "event"
    },
    {
      "constant": true,
      "inputs": [],
      "name": "bidCount",
      "outputs": [
        {
          "internalType": "uint256",
          "name": "",
          "type": "uint256"
        }
      ],
      "payable": false,
      "stateMutability": "view",
      "type": "function"
    },
    {
      "constant": true,
      "inputs": [
        {
          "internalType": "uint256",
          "name": "",
          "type": "uint256"
        }
      ],
      "name": "bids",
      "outputs": [
        {
          "internalType": "uint256",
          "name": "checkid",
          "type": "uint256"
        },
        {
          "internalType": "uint256",
          "name": "bid_id",
          "type": "uint256"
        },
        {
          "internalType": "string",
          "name": "name",
          "type": "string"
        },
        {
          "internalType": "string",
          "name": "message",
          "type": "string"
        },
        {
          "internalType": "uint256",
          "name": "price",
          "type": "uint256"
        },
        {
          "internalType": "address payable",
          "name": "bidder",
          "type": "address"
        },
        {
          "internalType": "bool",
          "name": "status",
          "type": "bool"
        }
      ],
      "payable": false,
      "stateMutability": "view",
      "type": "function"
    },
    {
      "constant": true,
      "inputs": [],
      "name": "ledgerCount",
      "outputs": [
        {
          "internalType": "uint256",
          "name": "",
          "type": "uint256"
        }
      ],
      "payable": false,
      "stateMutability": "view",
      "type": "function"
    },
    {
      "constant": true,
      "inputs": [
        {
          "internalType": "uint256",
          "name": "",
          "type": "uint256"
        }
      ],
      "name": "ledgers",
      "outputs": [
        {
          "internalType": "uint256",
          "name": "id",
          "type": "uint256"
        },
        {
          "internalType": "uint256",
          "name": "p_id",
          "type": "uint256"
        },
        {
          "internalType": "address payable",
          "name": "new_owner",
          "type": "address"
        },
        {
          "internalType": "uint256",
          "name": "time",
          "type": "uint256"
        }
      ],
      "payable": false,
      "stateMutability": "view",
      "type": "function"
    },
    {
      "constant": true,
      "inputs": [],
      "name": "linkCount",
      "outputs": [
        {
          "internalType": "uint256",
          "name": "",
          "type": "uint256"
        }
      ],
      "payable": false,
      "stateMutability": "view",
      "type": "function"
    },
    {
      "constant": true,
      "inputs": [
        {
          "internalType": "uint256",
          "name": "",
          "type": "uint256"
        }
      ],
      "name": "links",
      "outputs": [
        {
          "internalType": "uint256",
          "name": "checkid",
          "type": "uint256"
        },
        {
          "internalType": "uint256",
          "name": "bid_id",
          "type": "uint256"
        },
        {
          "internalType": "string",
          "name": "name",
          "type": "string"
        },
        {
          "internalType": "string",
          "name": "message",
          "type": "string"
        },
        {
          "internalType": "uint256",
          "name": "price",
          "type": "uint256"
        },
        {
          "internalType": "address payable",
          "name": "bidder",
          "type": "address"
        },
        {
          "internalType": "bool",
          "name": "status",
          "type": "bool"
        }
      ],
      "payable": false,
      "stateMutability": "view",
      "type": "function"
    },
    {
      "constant": true,
      "inputs": [],
      "name": "propertyCount",
      "outputs": [
        {
          "internalType": "uint256",
          "name": "",
          "type": "uint256"
        }
      ],
      "payable": false,
      "stateMutability": "view",
      "type": "function"
    },
    {
      "constant": true,
      "inputs": [
        {
          "internalType": "uint256",
          "name": "",
          "type": "uint256"
        }
      ],
      "name": "props",
      "outputs": [
        {
          "internalType": "uint256",
          "name": "id",
          "type": "uint256"
        },
        {
          "internalType": "string",
          "name": "name",
          "type": "string"
        },
        {
          "internalType": "string",
          "name": "des",
          "type": "string"
        },
        {
          "internalType": "string",
          "name": "type1",
          "type": "string"
        },
        {
          "internalType": "address payable",
          "name": "owner",
          "type": "address"
        },
        {
          "internalType": "string",
          "name": "location",
          "type": "string"
        },
        {
          "internalType": "uint256",
          "name": "time",
          "type": "uint256"
        },
        {
          "internalType": "string",
          "name": "status",
          "type": "string"
        },
        {
          "internalType": "bool",
          "name": "bstatus",
          "type": "bool"
        },
        {
          "internalType": "bool",
          "name": "purchased",
          "type": "bool"
        }
      ],
      "payable": false,
      "stateMutability": "view",
      "type": "function"
    },
    {
      "constant": false,
      "inputs": [
        {
          "internalType": "string",
          "name": "_name",
          "type": "string"
        },
        {
          "internalType": "string",
          "name": "_des",
          "type": "string"
        },
        {
          "internalType": "address payable",
          "name": "_owner",
          "type": "address"
        },
        {
          "internalType": "string",
          "name": "_type",
          "type": "string"
        },
        {
          "internalType": "string",
          "name": "_location",
          "type": "string"
        }
      ],
      "name": "createProperty",
      "outputs": [],
      "payable": false,
      "stateMutability": "nonpayable",
      "type": "function"
    },
    {
      "constant": false,
      "inputs": [
        {
          "internalType": "uint256",
          "name": "_id",
          "type": "uint256"
        }
      ],
      "name": "verifyProperty",
      "outputs": [],
      "payable": false,
      "stateMutability": "nonpayable",
      "type": "function"
    },
    {
      "constant": false,
      "inputs": [
        {
          "internalType": "uint256",
          "name": "_id",
          "type": "uint256"
        }
      ],
      "name": "forSale",
      "outputs": [],
      "payable": true,
      "stateMutability": "payable",
      "type": "function"
    },
    {
      "constant": false,
      "inputs": [
        {
          "internalType": "uint256",
          "name": "_id",
          "type": "uint256"
        }
      ],
      "name": "forRent",
      "outputs": [],
      "payable": true,
      "stateMutability": "payable",
      "type": "function"
    },
    {
      "constant": false,
      "inputs": [
        {
          "internalType": "uint256",
          "name": "_id",
          "type": "uint256"
        }
      ],
      "name": "forApprove",
      "outputs": [],
      "payable": true,
      "stateMutability": "payable",
      "type": "function"
    },
    {
      "constant": false,
      "inputs": [
        {
          "internalType": "uint256",
          "name": "_checkid",
          "type": "uint256"
        },
        {
          "internalType": "string",
          "name": "_name",
          "type": "string"
        },
        {
          "internalType": "string",
          "name": "_message",
          "type": "string"
        },
        {
          "internalType": "uint256",
          "name": "_price",
          "type": "uint256"
        }
      ],
      "name": "createBid",
      "outputs": [],
      "payable": false,
      "stateMutability": "nonpayable",
      "type": "function"
    },
    {
      "constant": false,
      "inputs": [
        {
          "internalType": "uint256",
          "name": "_id",
          "type": "uint256"
        }
      ],
      "name": "purchaseBid",
      "outputs": [],
      "payable": true,
      "stateMutability": "payable",
      "type": "function"
    }
  ],
  "bytecode": "0x60806040526000805560006001556000600255600060035534801561002357600080fd5b5061389f806100336000396000f3fe6080604052600436106100e85760003560e01c806393492a2e1161008a578063c361a33511610059578063c361a33514610939578063e978919014610964578063fda54c16146109f4578063fe47310814610caf576100e8565b806393492a2e1461060b5780639bb00ae3146108b8578063aac47679146108e3578063b40a56271461090e576100e8565b80634212a8ae116100c65780634212a8ae146102bc5780634423c5f1146102f7578063526c8ef11461046a578063881d8a4014610498576100e8565b80630da3c49c146100ed5780632831f2f4146102605780633a38bf571461028e575b600080fd5b3480156100f957600080fd5b5061025e6004803603608081101561011057600080fd5b81019080803590602001909291908035906020019064010000000081111561013757600080fd5b82018360208201111561014957600080fd5b8035906020019184600183028401116401000000008311171561016b57600080fd5b91908080601f016020809104026020016040519081016040528093929190818152602001838380828437600081840152601f19601f820116905080830192505050505050509192919290803590602001906401000000008111156101ce57600080fd5b8201836020820111156101e057600080fd5b8035906020019184600183028401116401000000008311171561020257600080fd5b91908080601f016020809104026020016040519081016040528093929190818152602001838380828437600081840152601f19601f82011690508083019250505050505050919291929080359060200190929190505050610cdd565b005b61028c6004803603602081101561027657600080fd5b8101908080359060200190929190505050610f7e565b005b6102ba600480360360208110156102a457600080fd5b81019080803590602001909291905050506112c5565b005b3480156102c857600080fd5b506102f5600480360360208110156102df57600080fd5b810190808035906020019092919050505061160c565b005b34801561030357600080fd5b506103306004803603602081101561031a57600080fd5b8101908080359060200190929190505050611b7d565b6040518088815260200187815260200180602001806020018681526020018573ffffffffffffffffffffffffffffffffffffffff1673ffffffffffffffffffffffffffffffffffffffff16815260200184151515158152602001838103835288818151815260200191508051906020019080838360005b838110156103c25780820151818401526020810190506103a7565b50505050905090810190601f1680156103ef5780820380516001836020036101000a031916815260200191505b50838103825287818151815260200191508051906020019080838360005b8381101561042857808201518184015260208101905061040d565b50505050905090810190601f1680156104555780820380516001836020036101000a031916815260200191505b50995050505050505050505060405180910390f35b6104966004803603602081101561048057600080fd5b8101908080359060200190929190505050611d1c565b005b3480156104a457600080fd5b506104d1600480360360208110156104bb57600080fd5b8101908080359060200190929190505050612032565b6040518088815260200187815260200180602001806020018681526020018573ffffffffffffffffffffffffffffffffffffffff1673ffffffffffffffffffffffffffffffffffffffff16815260200184151515158152602001838103835288818151815260200191508051906020019080838360005b83811015610563578082015181840152602081019050610548565b50505050905090810190601f1680156105905780820380516001836020036101000a031916815260200191505b50838103825287818151815260200191508051906020019080838360005b838110156105c95780820151818401526020810190506105ae565b50505050905090810190601f1680156105f65780820380516001836020036101000a031916815260200191505b50995050505050505050505060405180910390f35b34801561061757600080fd5b506108b6600480360360a081101561062e57600080fd5b810190808035906020019064010000000081111561064b57600080fd5b82018360208201111561065d57600080fd5b8035906020019184600183028401116401000000008311171561067f57600080fd5b91908080601f016020809104026020016040519081016040528093929190818152602001838380828437600081840152601f19601f820116905080830192505050505050509192919290803590602001906401000000008111156106e257600080fd5b8201836020820111156106f457600080fd5b8035906020019184600183028401116401000000008311171561071657600080fd5b91908080601f016020809104026020016040519081016040528093929190818152602001838380828437600081840152601f19601f820116905080830192505050505050509192919290803573ffffffffffffffffffffffffffffffffffffffff1690602001909291908035906020019064010000000081111561079957600080fd5b8201836020820111156107ab57600080fd5b803590602001918460018302840111640100000000831117156107cd57600080fd5b91908080601f016020809104026020016040519081016040528093929190818152602001838380828437600081840152601f19601f8201169050808301925050505050505091929192908035906020019064010000000081111561083057600080fd5b82018360208201111561084257600080fd5b8035906020019184600183028401116401000000008311171561086457600080fd5b91908080601f016020809104026020016040519081016040528093929190818152602001838380828437600081840152601f19601f8201169050808301925050505050505091929192905050506121d1565b005b3480156108c457600080fd5b506108cd612642565b6040518082815260200191505060405180910390f35b3480156108ef57600080fd5b506108f8612648565b6040518082815260200191505060405180910390f35b34801561091a57600080fd5b5061092361264e565b6040518082815260200191505060405180910390f35b34801561094557600080fd5b5061094e612654565b6040518082815260200191505060405180910390f35b34801561097057600080fd5b5061099d6004803603602081101561098757600080fd5b810190808035906020019092919050505061265a565b604051808581526020018481526020018373ffffffffffffffffffffffffffffffffffffffff1673ffffffffffffffffffffffffffffffffffffffff16815260200182815260200194505050505060405180910390f35b348015610a0057600080fd5b50610a2d60048036036020811015610a1757600080fd5b81019080803590602001909291905050506126aa565b604051808b81526020018060200180602001806020018a73ffffffffffffffffffffffffffffffffffffffff1673ffffffffffffffffffffffffffffffffffffffff1681526020018060200189815260200180602001881515151581526020018715151515815260200186810386528f818151815260200191508051906020019080838360005b83811015610acf578082015181840152602081019050610ab4565b50505050905090810190601f168015610afc5780820380516001836020036101000a031916815260200191505b5086810385528e818151815260200191508051906020019080838360005b83811015610b35578082015181840152602081019050610b1a565b50505050905090810190601f168015610b625780820380516001836020036101000a031916815260200191505b5086810384528d818151815260200191508051906020019080838360005b83811015610b9b578082015181840152602081019050610b80565b50505050905090810190601f168015610bc85780820380516001836020036101000a031916815260200191505b5086810383528b818151815260200191508051906020019080838360005b83811015610c01578082015181840152602081019050610be6565b50505050905090810190601f168015610c2e5780820380516001836020036101000a031916815260200191505b50868103825289818151815260200191508051906020019080838360005b83811015610c67578082015181840152602081019050610c4c565b50505050905090810190601f168015610c945780820380516001836020036101000a031916815260200191505b509f5050505050505050505050505050505060405180910390f35b610cdb60048036036020811015610cc557600080fd5b8101908080359060200190929190505050612a30565b005b6040518060e0016040528085815260200160015481526020018481526020018381526020018281526020013373ffffffffffffffffffffffffffffffffffffffff1681526020016000151581525060056000600154815260200190815260200160002060008201518160000155602082015181600101556040820151816002019080519060200190610d70929190613683565b506060820151816003019080519060200190610d8d929190613683565b506080820151816004015560a08201518160050160006101000a81548173ffffffffffffffffffffffffffffffffffffffff021916908373ffffffffffffffffffffffffffffffffffffffff16021790555060c08201518160050160146101000a81548160ff0219169083151502179055509050506001600081548092919060010191905055507f7db1a57aa59dca21125ffef6b145d4451f42de0f9995043a82b6f7daf514e774846001548585853360006040518088815260200187815260200180602001806020018681526020018573ffffffffffffffffffffffffffffffffffffffff1673ffffffffffffffffffffffffffffffffffffffff16815260200184151515158152602001838103835288818151815260200191508051906020019080838360005b83811015610ed1578082015181840152602081019050610eb6565b50505050905090810190601f168015610efe5780820380516001836020036101000a031916815260200191505b50838103825287818151815260200191508051906020019080838360005b83811015610f37578082015181840152602081019050610f1c565b50505050905090810190601f168015610f645780820380516001836020036101000a031916815260200191505b50995050505050505050505060405180910390a150505050565b6040518060400160405280600481526020017f53414c4500000000000000000000000000000000000000000000000000000000815250600460008381526020019081526020016000206007019080519060200190610fdd929190613703565b507fae36074216998a0470a1f95447d4d5e3af6ce39ee8bc690c5923e76601485911600054600460008481526020019081526020016000206001016004600085815260200190815260200160002060020160046000868152602001908152602001600020600301600460008781526020019081526020016000206007016004600088815260200190815260200160002060080160019054906101000a900460ff1660405180878152602001806020018060200180602001806020018615151515815260200185810385528a8181546001816001161561010002031660029004815260200191508054600181600116156101000203166002900480156111235780601f106110f857610100808354040283529160200191611123565b820191906000526020600020905b81548152906001019060200180831161110657829003601f168201915b50508581038452898181546001816001161561010002031660029004815260200191508054600181600116156101000203166002900480156111a65780601f1061117b576101008083540402835291602001916111a6565b820191906000526020600020905b81548152906001019060200180831161118957829003601f168201915b50508581038352888181546001816001161561010002031660029004815260200191508054600181600116156101000203166002900480156112295780601f106111fe57610100808354040283529160200191611229565b820191906000526020600020905b81548152906001019060200180831161120c57829003601f168201915b50508581038252878181546001816001161561010002031660029004815260200191508054600181600116156101000203166002900480156112ac5780601f10611281576101008083540402835291602001916112ac565b820191906000526020600020905b81548152906001019060200180831161128f57829003601f168201915b50509a505050505050505050505060405180910390a150565b6040518060400160405280600481526020017f52454e5400000000000000000000000000000000000000000000000000000000815250600460008381526020019081526020016000206007019080519060200190611324929190613703565b507fae36074216998a0470a1f95447d4d5e3af6ce39ee8bc690c5923e76601485911600054600460008481526020019081526020016000206001016004600085815260200190815260200160002060020160046000868152602001908152602001600020600301600460008781526020019081526020016000206007016004600088815260200190815260200160002060080160019054906101000a900460ff1660405180878152602001806020018060200180602001806020018615151515815260200185810385528a81815460018160011615610100020316600290048152602001915080546001816001161561010002031660029004801561146a5780601f1061143f5761010080835404028352916020019161146a565b820191906000526020600020905b81548152906001019060200180831161144d57829003601f168201915b50508581038452898181546001816001161561010002031660029004815260200191508054600181600116156101000203166002900480156114ed5780601f106114c2576101008083540402835291602001916114ed565b820191906000526020600020905b8154815290600101906020018083116114d057829003601f168201915b50508581038352888181546001816001161561010002031660029004815260200191508054600181600116156101000203166002900480156115705780601f1061154557610100808354040283529160200191611570565b820191906000526020600020905b81548152906001019060200180831161155357829003601f168201915b50508581038252878181546001816001161561010002031660029004815260200191508054600181600116156101000203166002900480156115f35780601f106115c8576101008083540402835291602001916115f3565b820191906000526020600020905b8154815290600101906020018083116115d657829003601f168201915b50509a505050505050505050505060405180910390a150565b60016004600083815260200190815260200160002060080160006101000a81548160ff021916908315150217905550604051806080016040528060035481526020018281526020016004600084815260200190815260200160002060040160009054906101000a900473ffffffffffffffffffffffffffffffffffffffff1673ffffffffffffffffffffffffffffffffffffffff16815260200142815250600760006003548152602001908152602001600020600082015181600001556020820151816001015560408201518160020160006101000a81548173ffffffffffffffffffffffffffffffffffffffff021916908373ffffffffffffffffffffffffffffffffffffffff160217905550606082015181600301559050506003600081548092919060010191905055507f14851946c8230dba67134f590e985f2b78c5a50638089913f5583098921aa8e8600354826004600085815260200190815260200160002060040160009054906101000a900473ffffffffffffffffffffffffffffffffffffffff1642604051808581526020018481526020018373ffffffffffffffffffffffffffffffffffffffff1673ffffffffffffffffffffffffffffffffffffffff16815260200182815260200194505050505060405180910390a17ffe8f0317332db729ad1f6b581cb57f057d26881bcce8365898636b92a92b281860046000838152602001908152602001600020600001546004600084815260200190815260200160002060010160046000858152602001908152602001600020600201600460008681526020019081526020016000206003016004600087815260200190815260200160002060040160009054906101000a900473ffffffffffffffffffffffffffffffffffffffff16600460008881526020019081526020016000206005014260006001604051808a81526020018060200180602001806020018973ffffffffffffffffffffffffffffffffffffffff1673ffffffffffffffffffffffffffffffffffffffff1681526020018060200188815260200180602001881515151581526020018715151515815260200186810386528e8181546001816001161561010002031660029004815260200191508054600181600116156101000203166002900480156119a35780601f10611978576101008083540402835291602001916119a3565b820191906000526020600020905b81548152906001019060200180831161198657829003601f168201915b505086810385528d818154600181600116156101000203166002900481526020019150805460018160011615610100020316600290048015611a265780601f106119fb57610100808354040283529160200191611a26565b820191906000526020600020905b815481529060010190602001808311611a0957829003601f168201915b505086810384528c818154600181600116156101000203166002900481526020019150805460018160011615610100020316600290048015611aa95780601f10611a7e57610100808354040283529160200191611aa9565b820191906000526020600020905b815481529060010190602001808311611a8c57829003601f168201915b505086810383528a818154600181600116156101000203166002900481526020019150805460018160011615610100020316600290048015611b2c5780601f10611b0157610100808354040283529160200191611b2c565b820191906000526020600020905b815481529060010190602001808311611b0f57829003601f168201915b50508681038252600d8152602001807f4e4f5420415641494c41424c45000000000000000000000000000000000000008152506020019e50505050505050505050505050505060405180910390a150565b6005602052806000526040600020600091509050806000015490806001015490806002018054600181600116156101000203166002900480601f016020809104026020016040519081016040528092919081815260200182805460018160011615610100020316600290048015611c355780601f10611c0a57610100808354040283529160200191611c35565b820191906000526020600020905b815481529060010190602001808311611c1857829003601f168201915b505050505090806003018054600181600116156101000203166002900480601f016020809104026020016040519081016040528092919081815260200182805460018160011615610100020316600290048015611cd35780601f10611ca857610100808354040283529160200191611cd3565b820191906000526020600020905b815481529060010190602001808311611cb657829003601f168201915b5050505050908060040154908060050160009054906101000a900473ffffffffffffffffffffffffffffffffffffffff16908060050160149054906101000a900460ff16905087565b60016005600083815260200190815260200160002060050160146101000a81548160ff0219169083151502179055507fae36074216998a0470a1f95447d4d5e3af6ce39ee8bc690c5923e76601485911600054600460008481526020019081526020016000206001016004600085815260200190815260200160002060020160046000868152602001908152602001600020600301600460008781526020019081526020016000206007016004600088815260200190815260200160002060080160019054906101000a900460ff1660405180878152602001806020018060200180602001806020018615151515815260200185810385528a818154600181600116156101000203166002900481526020019150805460018160011615610100020316600290048015611e905780601f10611e6557610100808354040283529160200191611e90565b820191906000526020600020905b815481529060010190602001808311611e7357829003601f168201915b5050858103845289818154600181600116156101000203166002900481526020019150805460018160011615610100020316600290048015611f135780601f10611ee857610100808354040283529160200191611f13565b820191906000526020600020905b815481529060010190602001808311611ef657829003601f168201915b5050858103835288818154600181600116156101000203166002900481526020019150805460018160011615610100020316600290048015611f965780601f10611f6b57610100808354040283529160200191611f96565b820191906000526020600020905b815481529060010190602001808311611f7957829003601f168201915b50508581038252878181546001816001161561010002031660029004815260200191508054600181600116156101000203166002900480156120195780601f10611fee57610100808354040283529160200191612019565b820191906000526020600020905b815481529060010190602001808311611ffc57829003601f168201915b50509a505050505050505050505060405180910390a150565b6006602052806000526040600020600091509050806000015490806001015490806002018054600181600116156101000203166002900480601f0160208091040260200160405190810160405280929190818152602001828054600181600116156101000203166002900480156120ea5780601f106120bf576101008083540402835291602001916120ea565b820191906000526020600020905b8154815290600101906020018083116120cd57829003601f168201915b505050505090806003018054600181600116156101000203166002900480601f0160208091040260200160405190810160405280929190818152602001828054600181600116156101000203166002900480156121885780601f1061215d57610100808354040283529160200191612188565b820191906000526020600020905b81548152906001019060200180831161216b57829003601f168201915b5050505050908060040154908060050160009054906101000a900473ffffffffffffffffffffffffffffffffffffffff16908060050160149054906101000a900460ff16905087565b60405180610140016040528060005481526020018681526020018581526020018381526020018473ffffffffffffffffffffffffffffffffffffffff1681526020018281526020014281526020016040518060400160405280600d81526020017f4e4f5420415641494c41424c450000000000000000000000000000000000000081525081526020016000151581526020016000151581525060046000805481526020019081526020016000206000820151816000015560208201518160010190805190602001906122a4929190613683565b5060408201518160020190805190602001906122c1929190613683565b5060608201518160030190805190602001906122de929190613683565b5060808201518160040160006101000a81548173ffffffffffffffffffffffffffffffffffffffff021916908373ffffffffffffffffffffffffffffffffffffffff16021790555060a0820151816005019080519060200190612342929190613683565b5060c0820151816006015560e0820151816007019080519060200190612369929190613683565b506101008201518160080160006101000a81548160ff0219169083151502179055506101208201518160080160016101000a81548160ff02191690831515021790555090505060008081548092919060010191905055507ffe8f0317332db729ad1f6b581cb57f057d26881bcce8365898636b92a92b2818600054868685878642600080604051808a81526020018060200180602001806020018973ffffffffffffffffffffffffffffffffffffffff1673ffffffffffffffffffffffffffffffffffffffff1681526020018060200188815260200180602001881515151581526020018715151515815260200186810386528e818151815260200191508051906020019080838360005b8381101561248f578082015181840152602081019050612474565b50505050905090810190601f1680156124bc5780820380516001836020036101000a031916815260200191505b5086810385528d818151815260200191508051906020019080838360005b838110156124f55780820151818401526020810190506124da565b50505050905090810190601f1680156125225780820380516001836020036101000a031916815260200191505b5086810384528c818151815260200191508051906020019080838360005b8381101561255b578082015181840152602081019050612540565b50505050905090810190601f1680156125885780820380516001836020036101000a031916815260200191505b5086810383528a818151815260200191508051906020019080838360005b838110156125c15780820151818401526020810190506125a6565b50505050905090810190601f1680156125ee5780820380516001836020036101000a031916815260200191505b508681038252600d8152602001807f4e4f5420415641494c41424c45000000000000000000000000000000000000008152506020019e50505050505050505050505050505060405180910390a15050505050565b60035481565b60025481565b60015481565b60005481565b60076020528060005260406000206000915090508060000154908060010154908060020160009054906101000a900473ffffffffffffffffffffffffffffffffffffffff16908060030154905084565b6004602052806000526040600020600091509050806000015490806001018054600181600116156101000203166002900480601f01602080910402602001604051908101604052809291908181526020018280546001816001161561010002031660029004801561275c5780601f106127315761010080835404028352916020019161275c565b820191906000526020600020905b81548152906001019060200180831161273f57829003601f168201915b505050505090806002018054600181600116156101000203166002900480601f0160208091040260200160405190810160405280929190818152602001828054600181600116156101000203166002900480156127fa5780601f106127cf576101008083540402835291602001916127fa565b820191906000526020600020905b8154815290600101906020018083116127dd57829003601f168201915b505050505090806003018054600181600116156101000203166002900480601f0160208091040260200160405190810160405280929190818152602001828054600181600116156101000203166002900480156128985780601f1061286d57610100808354040283529160200191612898565b820191906000526020600020905b81548152906001019060200180831161287b57829003601f168201915b5050505050908060040160009054906101000a900473ffffffffffffffffffffffffffffffffffffffff1690806005018054600181600116156101000203166002900480601f01602080910402602001604051908101604052809291908181526020018280546001816001161561010002031660029004801561295c5780601f106129315761010080835404028352916020019161295c565b820191906000526020600020905b81548152906001019060200180831161293f57829003601f168201915b505050505090806006015490806007018054600181600116156101000203166002900480601f016020809104026020016040519081016040528092919081815260200182805460018160011615610100020316600290048015612a005780601f106129d557610100808354040283529160200191612a00565b820191906000526020600020905b8154815290600101906020018083116129e357829003601f168201915b5050505050908060080160009054906101000a900460ff16908060080160019054906101000a900460ff1690508a565b612a38613783565b600560008381526020019081526020016000206040518060e00160405290816000820154815260200160018201548152602001600282018054600181600116156101000203166002900480601f016020809104026020016040519081016040528092919081815260200182805460018160011615610100020316600290048015612b035780601f10612ad857610100808354040283529160200191612b03565b820191906000526020600020905b815481529060010190602001808311612ae657829003601f168201915b50505050508152602001600382018054600181600116156101000203166002900480601f016020809104026020016040519081016040528092919081815260200182805460018160011615610100020316600290048015612ba55780601f10612b7a57610100808354040283529160200191612ba5565b820191906000526020600020905b815481529060010190602001808311612b8857829003601f168201915b50505050508152602001600482015481526020016005820160009054906101000a900473ffffffffffffffffffffffffffffffffffffffff1673ffffffffffffffffffffffffffffffffffffffff1673ffffffffffffffffffffffffffffffffffffffff1681526020016005820160149054906101000a900460ff161515151581525050905060008160a00151905060008260200151118015612c4d57506001548260200151105b612c5657600080fd5b8160800151341015612c6757600080fd5b600082600001519050612c786137d8565b600460008381526020019081526020016000206040518061014001604052908160008201548152602001600182018054600181600116156101000203166002900480601f016020809104026020016040519081016040528092919081815260200182805460018160011615610100020316600290048015612d3a5780601f10612d0f57610100808354040283529160200191612d3a565b820191906000526020600020905b815481529060010190602001808311612d1d57829003601f168201915b50505050508152602001600282018054600181600116156101000203166002900480601f016020809104026020016040519081016040528092919081815260200182805460018160011615610100020316600290048015612ddc5780601f10612db157610100808354040283529160200191612ddc565b820191906000526020600020905b815481529060010190602001808311612dbf57829003601f168201915b50505050508152602001600382018054600181600116156101000203166002900480601f016020809104026020016040519081016040528092919081815260200182805460018160011615610100020316600290048015612e7e5780601f10612e5357610100808354040283529160200191612e7e565b820191906000526020600020905b815481529060010190602001808311612e6157829003601f168201915b505050505081526020016004820160009054906101000a900473ffffffffffffffffffffffffffffffffffffffff1673ffffffffffffffffffffffffffffffffffffffff1673ffffffffffffffffffffffffffffffffffffffff168152602001600582018054600181600116156101000203166002900480601f016020809104026020016040519081016040528092919081815260200182805460018160011615610100020316600290048015612f765780601f10612f4b57610100808354040283529160200191612f76565b820191906000526020600020905b815481529060010190602001808311612f5957829003601f168201915b5050505050815260200160068201548152602001600782018054600181600116156101000203166002900480601f0160208091040260200160405190810160405280929190818152602001828054600181600116156101000203166002900480156130225780601f10612ff757610100808354040283529160200191613022565b820191906000526020600020905b81548152906001019060200180831161300557829003601f168201915b505050505081526020016008820160009054906101000a900460ff161515151581526020016008820160019054906101000a900460ff16151515158152505090506000816080015190508161012001511561307c57600080fd5b3373ffffffffffffffffffffffffffffffffffffffff168173ffffffffffffffffffffffffffffffffffffffff1614156130b557600080fd5b338560a0019073ffffffffffffffffffffffffffffffffffffffff16908173ffffffffffffffffffffffffffffffffffffffff16815250506001826101200190151590811515815250506040518060400160405280600d81526020017f4e4f5420415641494c41424c45000000000000000000000000000000000000008152508260e001819052508460a00151826080019073ffffffffffffffffffffffffffffffffffffffff16908173ffffffffffffffffffffffffffffffffffffffff16815250508460056000888152602001908152602001600020600082015181600001556020820151816001015560408201518160020190805190602001906131bd929190613683565b5060608201518160030190805190602001906131da929190613683565b506080820151816004015560a08201518160050160006101000a81548173ffffffffffffffffffffffffffffffffffffffff021916908373ffffffffffffffffffffffffffffffffffffffff16021790555060c08201518160050160146101000a81548160ff0219169083151502179055509050508160046000858152602001908152602001600020600082015181600001556020820151816001019080519060200190613289929190613683565b5060408201518160020190805190602001906132a6929190613683565b5060608201518160030190805190602001906132c3929190613683565b5060808201518160040160006101000a81548173ffffffffffffffffffffffffffffffffffffffff021916908373ffffffffffffffffffffffffffffffffffffffff16021790555060a0820151816005019080519060200190613327929190613683565b5060c0820151816006015560e082015181600701908051906020019061334e929190613683565b506101008201518160080160006101000a81548160ff0219169083151502179055506101208201518160080160016101000a81548160ff0219169083151502179055509050508073ffffffffffffffffffffffffffffffffffffffff166108fc349081150290604051600060405180830381858888f193505050501580156133da573d6000803e3d6000fd5b50604051806080016040528060035481526020018481526020018573ffffffffffffffffffffffffffffffffffffffff16815260200142815250600760006003548152602001908152602001600020600082015181600001556020820151816001015560408201518160020160006101000a81548173ffffffffffffffffffffffffffffffffffffffff021916908373ffffffffffffffffffffffffffffffffffffffff160217905550606082015181600301559050506003600081548092919060010191905055507f14851946c8230dba67134f590e985f2b78c5a50638089913f5583098921aa8e8600354848342604051808581526020018481526020018373ffffffffffffffffffffffffffffffffffffffff1673ffffffffffffffffffffffffffffffffffffffff16815260200182815260200194505050505060405180910390a17f0bc01cc82be868a5a19de4fd9f927b36bc8f38d681bda2f4776bc898432a640b600154866040015187606001518860800151336040518086815260200180602001806020018581526020018473ffffffffffffffffffffffffffffffffffffffff1673ffffffffffffffffffffffffffffffffffffffff168152602001838103835287818151815260200191508051906020019080838360005b838110156135d65780820151818401526020810190506135bb565b50505050905090810190601f1680156136035780820380516001836020036101000a031916815260200191505b50838103825286818151815260200191508051906020019080838360005b8381101561363c578082015181840152602081019050613621565b50505050905090810190601f1680156136695780820380516001836020036101000a031916815260200191505b5097505050505050505060405180910390a1505050505050565b828054600181600116156101000203166002900490600052602060002090601f016020900481019282601f106136c457805160ff19168380011785556136f2565b828001600101855582156136f2579182015b828111156136f15782518255916020019190600101906136d6565b5b5090506136ff9190613845565b5090565b828054600181600116156101000203166002900490600052602060002090601f016020900481019282601f1061374457805160ff1916838001178555613772565b82800160010185558215613772579182015b82811115613771578251825591602001919060010190613756565b5b50905061377f9190613845565b5090565b6040518060e001604052806000815260200160008152602001606081526020016060815260200160008152602001600073ffffffffffffffffffffffffffffffffffffffff1681526020016000151581525090565b60405180610140016040528060008152602001606081526020016060815260200160608152602001600073ffffffffffffffffffffffffffffffffffffffff1681526020016060815260200160008152602001606081526020016000151581526020016000151581525090565b61386791905b8082111561386357600081600090555060010161384b565b5090565b9056fea265627a7a723158206c970198f6f86720cbc90ee8205dbecdb0619606210fb5e4a362a51c5969124564736f6c634300050c0032",
  "source": "pragma solidity ^0.5.1;\ncontract freelancer{\n\n    struct property{\n        uint id;\n        string name;\n        string des;\n        string type1;\n        address payable owner;\n        string location;\n        uint256 time;\n        string status;\n        bool bstatus;\n        bool purchased;\n\n    }\n    \n    struct bid{\n        uint checkid;\n        uint bid_id;\n        string name;\n        string message;\n        uint price;\n        address payable bidder;\n        bool status;\n    }\n   struct ledger{\n        uint id;\n        uint p_id;\n        address payable new_owner;\n        uint256 time;\n    }\n\n    \n    uint public propertyCount=0;\n    uint public bidCount=0;\n    uint public linkCount=0;\n    uint public ledgerCount=0;\n\n    mapping (uint=>property) public props;\n    mapping (uint=>bid) public bids;\n    mapping (uint=>bid) public links;\n    mapping (uint=>ledger) public ledgers;\n     \n    \n    event propertyCreated(\n        uint id,\n        string name,\n        string des,\n        string type1,\n        address payable owner,\n        string location,\n        uint256 time,\n        string status,\n        bool bstatus,\n        bool purchased\n    );\n\n\n\n    event bidCreated(\n        uint checkid,\n        uint bid_id,\n        string name,\n        string message,\n        uint price,\n        address payable bidder,\n        bool status\n\n        );\n    event bidPurchased(\n        uint bid_id,\n        string name,\n        string message,\n        uint price,\n        address payable bidder\n        );\n\n    event Sale(\n        uint id,\n        string name,\n        string des,\n        string type1,\n        string status,\n        bool purchased\n    );\n\n    event Rent(\n        uint id,\n        string name,\n        string des,\n        string type1,\n        address payable owner,\n        string status,\n        bool purchased\n\n    );\n\n    event Approved(\n        uint checkid,\n        uint bid_id,\n        string name,\n        string message,\n        uint price,\n        address payable bidder,\n        bool status\n    );\n    \n      event ledgerCreated(\n        uint id,\n        uint p_id,\n        address payable new_owner,\n        uint256 time\n    );\n  \n\n    function createProperty(string memory _name,string memory _des,address payable _owner,string memory _type, string memory _location)public{\n        \n        props[propertyCount]=property(propertyCount,_name,_des,_type,_owner,_location, now,\"NOT AVAILABLE\",false,false);\n        propertyCount++;\n        emit propertyCreated(propertyCount,_name,_des,_type,_owner,_location,now,\"NOT AVAILABLE\",false,false);\n    }\n\n    function verifyProperty(uint _id)public{\n        props[_id].bstatus=true;\n        ledgers[ledgerCount]=ledger(ledgerCount,_id,props[_id].owner,now);\n        ledgerCount++;\n        emit ledgerCreated(ledgerCount,_id,props[_id].owner,now);\n        emit propertyCreated(props[_id].id,props[_id].name,props[_id].des,props[_id].type1,props[_id].owner,props[_id].location,now,\"NOT AVAILABLE\",false,true);\n    }\n\n    function forSale(uint _id)public payable{\n       //require(props[_id].owner==msg.sender);\n        props[_id].status=\"SALE\";\n        emit Sale(propertyCount,props[_id].name,props[_id].des,props[_id].type1,props[_id].status,props[_id].purchased);\n    }\n\n    function forRent(uint _id)public payable{\n        //require(props[_id].owner==msg.sender);\n        props[_id].status=\"RENT\";\n        emit Sale(propertyCount,props[_id].name,props[_id].des,props[_id].type1,props[_id].status,props[_id].purchased);\n   }\n    function forApprove(uint _id) public payable{\n\n        bids[_id].status=true;\n        emit Sale(propertyCount,props[_id].name,props[_id].des,props[_id].type1,props[_id].status,props[_id].purchased);\n    }\n\n\n    function createBid( uint _checkid,string memory _name, string memory _message, uint _price) public{\n        bids[bidCount]=bid(_checkid,bidCount,_name,_message,_price, msg.sender,false);\n        bidCount++;\n        //links[_checkid]=bid(bidCount,_name,_message,_time,_price, msg.sender);\n        //linkCount++;\n        emit bidCreated(_checkid,bidCount,_name,_message,_price, msg.sender,false);\n        \n    }\n\n     function purchaseBid(uint _id) public payable  {\n        //fetch the bid\n        bid memory _bid = bids[_id];\n        //fetch the owner \n        address payable _buyer =_bid.bidder;\n       // address payable _seller =_bid.bidder;\n        // Make sure the product id is valid\n        require (_bid.bid_id >0 && _bid.bid_id< bidCount);\n        // enough ether\n        require (msg.value >= _bid.price);\n         //fetch the work\n         uint  property_id =_bid.checkid;\n\n         property memory _property = props[property_id];\n\n         address payable _seller= _property.owner;\n         //work is not purchased\n         require (!_property.purchased);\n\n         //seller is not buyer\n         require (_seller!=msg.sender);\n         \n         \n        //transfer ownership to the buyer\n         _bid.bidder= msg.sender;\n         //mark as purchased\n        _property.purchased = true;\n        _property.status=\"NOT AVAILABLE\";\n        _property.owner=_bid.bidder;\n         //update the product\n         bids[_id]=_bid;\n         props[property_id]=_property;\n         //pay the seller through ether\n         address(_seller).transfer(msg.value);\n         //trigger an event\n         ledgers[ledgerCount]=ledger(ledgerCount,property_id,_buyer,now);\n         ledgerCount ++;\n         emit ledgerCreated(ledgerCount,property_id,_seller,now);\n         emit bidPurchased(bidCount,_bid.name,_bid.message,_bid.price, msg.sender);\n\n    }    \n\n}",
  "sourcePath": "/home/neha/Desktop/Ethereum/shelterhub1 (copy)/client/src/contracts/freelancer.sol",
  "compiler": {
    "name": "solc",
    "version": "0.5.12+commit.7709ece9.Emscripten.clang"
  },
  "schemaVersion": "3.0.20",
  "updatedAt": "2020-07-01T12:00:09.578Z",
  "networkType": "ethereum",
  "devdoc": {
    "methods": {}
  },
  "userdoc": {
    "methods": {}
  }
}