{
  "contractName": "freelancer",
  "abi": [
    {
      "anonymous": false,
      "inputs": [
        {
          "indexed": false,
          "internalType": "uint256",
          "name": "checkid",
          "type": "uint256"
        },
        {
          "indexed": false,
          "internalType": "uint256",
          "name": "bid_id",
          "type": "uint256"
        },
        {
          "indexed": false,
          "internalType": "string",
          "name": "name",
          "type": "string"
        },
        {
          "indexed": false,
          "internalType": "string",
          "name": "message",
          "type": "string"
        },
        {
          "indexed": false,
          "internalType": "uint256",
          "name": "price",
          "type": "uint256"
        },
        {
          "indexed": false,
          "internalType": "address payable",
          "name": "bidder",
          "type": "address"
        },
        {
          "indexed": false,
          "internalType": "bool",
          "name": "status",
          "type": "bool"
        }
      ],
      "name": "Approved",
      "type": "event"
    },
    {
      "anonymous": false,
      "inputs": [
        {
          "indexed": false,
          "internalType": "uint256",
          "name": "id",
          "type": "uint256"
        },
        {
          "indexed": false,
          "internalType": "string",
          "name": "name",
          "type": "string"
        },
        {
          "indexed": false,
          "internalType": "string",
          "name": "des",
          "type": "string"
        },
        {
          "indexed": false,
          "internalType": "string",
          "name": "type1",
          "type": "string"
        },
        {
          "indexed": false,
          "internalType": "address payable",
          "name": "owner",
          "type": "address"
        },
        {
          "indexed": false,
          "internalType": "string",
          "name": "status",
          "type": "string"
        },
        {
          "indexed": false,
          "internalType": "bool",
          "name": "purchased",
          "type": "bool"
        }
      ],
      "name": "Rent",
      "type": "event"
    },
    {
      "anonymous": false,
      "inputs": [
        {
          "indexed": false,
          "internalType": "uint256",
          "name": "id",
          "type": "uint256"
        },
        {
          "indexed": false,
          "internalType": "string",
          "name": "name",
          "type": "string"
        },
        {
          "indexed": false,
          "internalType": "string",
          "name": "des",
          "type": "string"
        },
        {
          "indexed": false,
          "internalType": "string",
          "name": "type1",
          "type": "string"
        },
        {
          "indexed": false,
          "internalType": "string",
          "name": "status",
          "type": "string"
        },
        {
          "indexed": false,
          "internalType": "bool",
          "name": "purchased",
          "type": "bool"
        }
      ],
      "name": "Sale",
      "type": "event"
    },
    {
      "anonymous": false,
      "inputs": [
        {
          "indexed": false,
          "internalType": "uint256",
          "name": "checkid",
          "type": "uint256"
        },
        {
          "indexed": false,
          "internalType": "uint256",
          "name": "bid_id",
          "type": "uint256"
        },
        {
          "indexed": false,
          "internalType": "string",
          "name": "name",
          "type": "string"
        },
        {
          "indexed": false,
          "internalType": "string",
          "name": "message",
          "type": "string"
        },
        {
          "indexed": false,
          "internalType": "uint256",
          "name": "price",
          "type": "uint256"
        },
        {
          "indexed": false,
          "internalType": "uint256",
          "name": "gprice",
          "type": "uint256"
        },
        {
          "indexed": false,
          "internalType": "address payable",
          "name": "bidder",
          "type": "address"
        },
        {
          "indexed": false,
          "internalType": "bool",
          "name": "status",
          "type": "bool"
        }
      ],
      "name": "bidCreated",
      "type": "event"
    },
    {
      "anonymous": false,
      "inputs": [
        {
          "indexed": false,
          "internalType": "uint256",
          "name": "bid_id",
          "type": "uint256"
        },
        {
          "indexed": false,
          "internalType": "string",
          "name": "name",
          "type": "string"
        },
        {
          "indexed": false,
          "internalType": "string",
          "name": "message",
          "type": "string"
        },
        {
          "indexed": false,
          "internalType": "uint256",
          "name": "price",
          "type": "uint256"
        },
        {
          "indexed": false,
          "internalType": "uint256",
          "name": "gprice",
          "type": "uint256"
        },
        {
          "indexed": false,
          "internalType": "address payable",
          "name": "bidder",
          "type": "address"
        }
      ],
      "name": "bidPurchased",
      "type": "event"
    },
    {
      "anonymous": false,
      "inputs": [
        {
          "indexed": false,
          "internalType": "uint256",
          "name": "id",
          "type": "uint256"
        },
        {
          "indexed": false,
          "internalType": "uint256",
          "name": "p_id",
          "type": "uint256"
        },
        {
          "indexed": false,
          "internalType": "address payable",
          "name": "new_owner",
          "type": "address"
        },
        {
          "indexed": false,
          "internalType": "uint256",
          "name": "time",
          "type": "uint256"
        }
      ],
      "name": "ledgerCreated",
      "type": "event"
    },
    {
      "anonymous": false,
      "inputs": [
        {
          "indexed": false,
          "internalType": "uint256",
          "name": "id",
          "type": "uint256"
        },
        {
          "indexed": false,
          "internalType": "string",
          "name": "name",
          "type": "string"
        },
        {
          "indexed": false,
          "internalType": "string",
          "name": "des",
          "type": "string"
        },
        {
          "indexed": false,
          "internalType": "string",
          "name": "type1",
          "type": "string"
        },
        {
          "indexed": false,
          "internalType": "address payable",
          "name": "owner",
          "type": "address"
        },
        {
          "indexed": false,
          "internalType": "string",
          "name": "location",
          "type": "string"
        },
        {
          "indexed": false,
          "internalType": "uint256",
          "name": "time",
          "type": "uint256"
        },
        {
          "indexed": false,
          "internalType": "string",
          "name": "status",
          "type": "string"
        },
        {
          "indexed": false,
          "internalType": "bool",
          "name": "bstatus",
          "type": "bool"
        },
        {
          "indexed": false,
          "internalType": "bool",
          "name": "purchased",
          "type": "bool"
        }
      ],
      "name": "propertyCreated",
      "type": "event"
    },
    {
      "anonymous": false,
      "inputs": [
        {
          "indexed": false,
          "internalType": "uint256",
          "name": "sid",
          "type": "uint256"
        },
        {
          "indexed": false,
          "internalType": "uint256",
          "name": "id",
          "type": "uint256"
        },
        {
          "indexed": false,
          "internalType": "string",
          "name": "name",
          "type": "string"
        },
        {
          "indexed": false,
          "internalType": "string",
          "name": "des",
          "type": "string"
        },
        {
          "indexed": false,
          "internalType": "string",
          "name": "type1",
          "type": "string"
        },
        {
          "indexed": false,
          "internalType": "string",
          "name": "status",
          "type": "string"
        },
        {
          "indexed": false,
          "internalType": "bool",
          "name": "purchased",
          "type": "bool"
        }
      ],
      "name": "shown",
      "type": "event"
    },
    {
      "constant": true,
      "inputs": [],
      "name": "bidCount",
      "outputs": [
        {
          "internalType": "uint256",
          "name": "",
          "type": "uint256"
        }
      ],
      "payable": false,
      "stateMutability": "view",
      "type": "function"
    },
    {
      "constant": true,
      "inputs": [
        {
          "internalType": "uint256",
          "name": "",
          "type": "uint256"
        }
      ],
      "name": "bids",
      "outputs": [
        {
          "internalType": "uint256",
          "name": "checkid",
          "type": "uint256"
        },
        {
          "internalType": "uint256",
          "name": "bid_id",
          "type": "uint256"
        },
        {
          "internalType": "string",
          "name": "name",
          "type": "string"
        },
        {
          "internalType": "string",
          "name": "message",
          "type": "string"
        },
        {
          "internalType": "uint256",
          "name": "price",
          "type": "uint256"
        },
        {
          "internalType": "uint256",
          "name": "gprice",
          "type": "uint256"
        },
        {
          "internalType": "address payable",
          "name": "bidder",
          "type": "address"
        },
        {
          "internalType": "bool",
          "name": "status",
          "type": "bool"
        }
      ],
      "payable": false,
      "stateMutability": "view",
      "type": "function"
    },
    {
      "constant": true,
      "inputs": [],
      "name": "ledgerCount",
      "outputs": [
        {
          "internalType": "uint256",
          "name": "",
          "type": "uint256"
        }
      ],
      "payable": false,
      "stateMutability": "view",
      "type": "function"
    },
    {
      "constant": true,
      "inputs": [
        {
          "internalType": "uint256",
          "name": "",
          "type": "uint256"
        }
      ],
      "name": "ledgers",
      "outputs": [
        {
          "internalType": "uint256",
          "name": "id",
          "type": "uint256"
        },
        {
          "internalType": "uint256",
          "name": "p_id",
          "type": "uint256"
        },
        {
          "internalType": "address payable",
          "name": "new_owner",
          "type": "address"
        },
        {
          "internalType": "uint256",
          "name": "time",
          "type": "uint256"
        }
      ],
      "payable": false,
      "stateMutability": "view",
      "type": "function"
    },
    {
      "constant": true,
      "inputs": [],
      "name": "linkCount",
      "outputs": [
        {
          "internalType": "uint256",
          "name": "",
          "type": "uint256"
        }
      ],
      "payable": false,
      "stateMutability": "view",
      "type": "function"
    },
    {
      "constant": true,
      "inputs": [
        {
          "internalType": "uint256",
          "name": "",
          "type": "uint256"
        }
      ],
      "name": "links",
      "outputs": [
        {
          "internalType": "uint256",
          "name": "checkid",
          "type": "uint256"
        },
        {
          "internalType": "uint256",
          "name": "bid_id",
          "type": "uint256"
        },
        {
          "internalType": "string",
          "name": "name",
          "type": "string"
        },
        {
          "internalType": "string",
          "name": "message",
          "type": "string"
        },
        {
          "internalType": "uint256",
          "name": "price",
          "type": "uint256"
        },
        {
          "internalType": "uint256",
          "name": "gprice",
          "type": "uint256"
        },
        {
          "internalType": "address payable",
          "name": "bidder",
          "type": "address"
        },
        {
          "internalType": "bool",
          "name": "status",
          "type": "bool"
        }
      ],
      "payable": false,
      "stateMutability": "view",
      "type": "function"
    },
    {
      "constant": true,
      "inputs": [],
      "name": "propertyCount",
      "outputs": [
        {
          "internalType": "uint256",
          "name": "",
          "type": "uint256"
        }
      ],
      "payable": false,
      "stateMutability": "view",
      "type": "function"
    },
    {
      "constant": true,
      "inputs": [
        {
          "internalType": "uint256",
          "name": "",
          "type": "uint256"
        }
      ],
      "name": "props",
      "outputs": [
        {
          "internalType": "uint256",
          "name": "id",
          "type": "uint256"
        },
        {
          "internalType": "string",
          "name": "name",
          "type": "string"
        },
        {
          "internalType": "string",
          "name": "des",
          "type": "string"
        },
        {
          "internalType": "string",
          "name": "type1",
          "type": "string"
        },
        {
          "internalType": "address payable",
          "name": "owner",
          "type": "address"
        },
        {
          "internalType": "string",
          "name": "location",
          "type": "string"
        },
        {
          "internalType": "uint256",
          "name": "time",
          "type": "uint256"
        },
        {
          "internalType": "string",
          "name": "status",
          "type": "string"
        },
        {
          "internalType": "bool",
          "name": "bstatus",
          "type": "bool"
        },
        {
          "internalType": "bool",
          "name": "purchased",
          "type": "bool"
        }
      ],
      "payable": false,
      "stateMutability": "view",
      "type": "function"
    },
    {
      "constant": true,
      "inputs": [],
      "name": "sid",
      "outputs": [
        {
          "internalType": "uint256",
          "name": "",
          "type": "uint256"
        }
      ],
      "payable": false,
      "stateMutability": "view",
      "type": "function"
    },
    {
      "constant": false,
      "inputs": [
        {
          "internalType": "string",
          "name": "_name",
          "type": "string"
        },
        {
          "internalType": "string",
          "name": "_des",
          "type": "string"
        },
        {
          "internalType": "address payable",
          "name": "_owner",
          "type": "address"
        },
        {
          "internalType": "string",
          "name": "_type",
          "type": "string"
        },
        {
          "internalType": "string",
          "name": "_location",
          "type": "string"
        }
      ],
      "name": "createProperty",
      "outputs": [],
      "payable": false,
      "stateMutability": "nonpayable",
      "type": "function"
    },
    {
      "constant": false,
      "inputs": [
        {
          "internalType": "uint256",
          "name": "_id",
          "type": "uint256"
        }
      ],
      "name": "verifyProperty",
      "outputs": [],
      "payable": false,
      "stateMutability": "nonpayable",
      "type": "function"
    },
    {
      "constant": false,
      "inputs": [
        {
          "internalType": "uint256",
          "name": "_id",
          "type": "uint256"
        }
      ],
      "name": "forSale",
      "outputs": [],
      "payable": true,
      "stateMutability": "payable",
      "type": "function"
    },
    {
      "constant": false,
      "inputs": [
        {
          "internalType": "uint256",
          "name": "_id",
          "type": "uint256"
        }
      ],
      "name": "show1",
      "outputs": [],
      "payable": true,
      "stateMutability": "payable",
      "type": "function"
    },
    {
      "constant": false,
      "inputs": [
        {
          "internalType": "uint256",
          "name": "_id",
          "type": "uint256"
        }
      ],
      "name": "forRent",
      "outputs": [],
      "payable": true,
      "stateMutability": "payable",
      "type": "function"
    },
    {
      "constant": false,
      "inputs": [
        {
          "internalType": "uint256",
          "name": "_id",
          "type": "uint256"
        }
      ],
      "name": "forApprove",
      "outputs": [],
      "payable": true,
      "stateMutability": "payable",
      "type": "function"
    },
    {
      "constant": false,
      "inputs": [
        {
          "internalType": "uint256",
          "name": "_checkid",
          "type": "uint256"
        },
        {
          "internalType": "string",
          "name": "_name",
          "type": "string"
        },
        {
          "internalType": "string",
          "name": "_message",
          "type": "string"
        },
        {
          "internalType": "uint256",
          "name": "_price",
          "type": "uint256"
        }
      ],
      "name": "createBid",
      "outputs": [],
      "payable": false,
      "stateMutability": "nonpayable",
      "type": "function"
    },
    {
      "constant": false,
      "inputs": [
        {
          "internalType": "uint256",
          "name": "_id",
          "type": "uint256"
        }
      ],
      "name": "purchaseBid",
      "outputs": [],
      "payable": true,
      "stateMutability": "payable",
      "type": "function"
    },
    {
      "constant": false,
      "inputs": [
        {
          "internalType": "uint256",
          "name": "_id",
          "type": "uint256"
        }
      ],
      "name": "purchaseBid1",
      "outputs": [],
      "payable": true,
      "stateMutability": "payable",
      "type": "function"
    }
  ],
  "bytecode": "0x608060405260008055600060015560006002556000600355600060085534801561002857600080fd5b5061497d806100386000396000f3fe6080604052600436106101095760003560e01c80639bb00ae311610095578063b40a562711610064578063b40a5627146109c4578063c361a335146109ef578063e978919014610a1a578063fda54c1614610aaa578063fe47310814610d6557610109565b80639bb00ae314610915578063aac4767914610940578063b1e8eb951461096b578063b2cd944a1461099657610109565b80634212a8ae116100dc5780634212a8ae1461030b5780634423c5f114610346578063526c8ef1146104c0578063881d8a40146104ee57806393492a2e1461066857610109565b80630da3c49c1461010e57806311a1feaa146102815780632831f2f4146102af5780633a38bf57146102dd575b600080fd5b34801561011a57600080fd5b5061027f6004803603608081101561013157600080fd5b81019080803590602001909291908035906020019064010000000081111561015857600080fd5b82018360208201111561016a57600080fd5b8035906020019184600183028401116401000000008311171561018c57600080fd5b91908080601f016020809104026020016040519081016040528093929190818152602001838380828437600081840152601f19601f820116905080830192505050505050509192919290803590602001906401000000008111156101ef57600080fd5b82018360208201111561020157600080fd5b8035906020019184600183028401116401000000008311171561022357600080fd5b91908080601f016020809104026020016040519081016040528093929190818152602001838380828437600081840152601f19601f82011690508083019250505050505050919291929080359060200190929190505050610d93565b005b6102ad6004803603602081101561029757600080fd5b8101908080359060200190929190505050611081565b005b6102db600480360360208110156102c557600080fd5b8101908080359060200190929190505050611d0f565b005b610309600480360360208110156102f357600080fd5b8101908080359060200190929190505050612056565b005b34801561031757600080fd5b506103446004803603602081101561032e57600080fd5b810190808035906020019092919050505061239d565b005b34801561035257600080fd5b5061037f6004803603602081101561036957600080fd5b810190808035906020019092919050505061290e565b6040518089815260200188815260200180602001806020018781526020018681526020018573ffffffffffffffffffffffffffffffffffffffff1673ffffffffffffffffffffffffffffffffffffffff16815260200184151515158152602001838103835289818151815260200191508051906020019080838360005b838110156104175780820151818401526020810190506103fc565b50505050905090810190601f1680156104445780820380516001836020036101000a031916815260200191505b50838103825288818151815260200191508051906020019080838360005b8381101561047d578082015181840152602081019050610462565b50505050905090810190601f1680156104aa5780820380516001836020036101000a031916815260200191505b509a505050505050505050505060405180910390f35b6104ec600480360360208110156104d657600080fd5b8101908080359060200190929190505050612ab3565b005b3480156104fa57600080fd5b506105276004803603602081101561051157600080fd5b8101908080359060200190929190505050612dc9565b6040518089815260200188815260200180602001806020018781526020018681526020018573ffffffffffffffffffffffffffffffffffffffff1673ffffffffffffffffffffffffffffffffffffffff16815260200184151515158152602001838103835289818151815260200191508051906020019080838360005b838110156105bf5780820151818401526020810190506105a4565b50505050905090810190601f1680156105ec5780820380516001836020036101000a031916815260200191505b50838103825288818151815260200191508051906020019080838360005b8381101561062557808201518184015260208101905061060a565b50505050905090810190601f1680156106525780820380516001836020036101000a031916815260200191505b509a505050505050505050505060405180910390f35b34801561067457600080fd5b50610913600480360360a081101561068b57600080fd5b81019080803590602001906401000000008111156106a857600080fd5b8201836020820111156106ba57600080fd5b803590602001918460018302840111640100000000831117156106dc57600080fd5b91908080601f016020809104026020016040519081016040528093929190818152602001838380828437600081840152601f19601f8201169050808301925050505050505091929192908035906020019064010000000081111561073f57600080fd5b82018360208201111561075157600080fd5b8035906020019184600183028401116401000000008311171561077357600080fd5b91908080601f016020809104026020016040519081016040528093929190818152602001838380828437600081840152601f19601f820116905080830192505050505050509192919290803573ffffffffffffffffffffffffffffffffffffffff169060200190929190803590602001906401000000008111156107f657600080fd5b82018360208201111561080857600080fd5b8035906020019184600183028401116401000000008311171561082a57600080fd5b91908080601f016020809104026020016040519081016040528093929190818152602001838380828437600081840152601f19601f8201169050808301925050505050505091929192908035906020019064010000000081111561088d57600080fd5b82018360208201111561089f57600080fd5b803590602001918460018302840111640100000000831117156108c157600080fd5b91908080601f016020809104026020016040519081016040528093929190818152602001838380828437600081840152601f19601f820116905080830192505050505050509192919290505050612f6e565b005b34801561092157600080fd5b5061092a6133df565b6040518082815260200191505060405180910390f35b34801561094c57600080fd5b506109556133e5565b6040518082815260200191505060405180910390f35b34801561097757600080fd5b506109806133eb565b6040518082815260200191505060405180910390f35b6109c2600480360360208110156109ac57600080fd5b81019080803590602001909291905050506133f1565b005b3480156109d057600080fd5b506109d96136e9565b6040518082815260200191505060405180910390f35b3480156109fb57600080fd5b50610a046136ef565b6040518082815260200191505060405180910390f35b348015610a2657600080fd5b50610a5360048036036020811015610a3d57600080fd5b81019080803590602001909291905050506136f5565b604051808581526020018481526020018373ffffffffffffffffffffffffffffffffffffffff1673ffffffffffffffffffffffffffffffffffffffff16815260200182815260200194505050505060405180910390f35b348015610ab657600080fd5b50610ae360048036036020811015610acd57600080fd5b8101908080359060200190929190505050613745565b604051808b81526020018060200180602001806020018a73ffffffffffffffffffffffffffffffffffffffff1673ffffffffffffffffffffffffffffffffffffffff1681526020018060200189815260200180602001881515151581526020018715151515815260200186810386528f818151815260200191508051906020019080838360005b83811015610b85578082015181840152602081019050610b6a565b50505050905090810190601f168015610bb25780820380516001836020036101000a031916815260200191505b5086810385528e818151815260200191508051906020019080838360005b83811015610beb578082015181840152602081019050610bd0565b50505050905090810190601f168015610c185780820380516001836020036101000a031916815260200191505b5086810384528d818151815260200191508051906020019080838360005b83811015610c51578082015181840152602081019050610c36565b50505050905090810190601f168015610c7e5780820380516001836020036101000a031916815260200191505b5086810383528b818151815260200191508051906020019080838360005b83811015610cb7578082015181840152602081019050610c9c565b50505050905090810190601f168015610ce45780820380516001836020036101000a031916815260200191505b50868103825289818151815260200191508051906020019080838360005b83811015610d1d578082015181840152602081019050610d02565b50505050905090810190601f168015610d4a5780820380516001836020036101000a031916815260200191505b509f5050505050505050505050505050505060405180910390f35b610d9160048036036020811015610d7b57600080fd5b8101908080359060200190929190505050613acb565b005b6040518061010001604052808581526020016001548152602001848152602001838152602001828152602001600081526020013373ffffffffffffffffffffffffffffffffffffffff1681526020016000151581525060056000600154815260200190815260200160002060008201518160000155602082015181600101556040820151816002019080519060200190610e2e929190614759565b506060820151816003019080519060200190610e4b929190614759565b506080820151816004015560a0820151816005015560c08201518160060160006101000a81548173ffffffffffffffffffffffffffffffffffffffff021916908373ffffffffffffffffffffffffffffffffffffffff16021790555060e08201518160060160146101000a81548160ff0219169083151502179055509050506000600a90506000818381610edb57fe5b04905080600560006001548152602001908152602001600020600501819055506001600081548092919060010191905055507f406b8ecffd3f72010816afcc60ac0bbcce9cc74a6b6291bab9cd1d9787219e9786600154878787863360006040518089815260200188815260200180602001806020018781526020018681526020018573ffffffffffffffffffffffffffffffffffffffff1673ffffffffffffffffffffffffffffffffffffffff16815260200184151515158152602001838103835289818151815260200191508051906020019080838360005b83811015610fd1578082015181840152602081019050610fb6565b50505050905090810190601f168015610ffe5780820380516001836020036101000a031916815260200191505b50838103825288818151815260200191508051906020019080838360005b8381101561103757808201518184015260208101905061101c565b50505050905090810190601f1680156110645780820380516001836020036101000a031916815260200191505b509a505050505050505050505060405180910390a1505050505050565b6110896147d9565b60056000838152602001908152602001600020604051806101000160405290816000820154815260200160018201548152602001600282018054600181600116156101000203166002900480601f0160208091040260200160405190810160405280929190818152602001828054600181600116156101000203166002900480156111555780601f1061112a57610100808354040283529160200191611155565b820191906000526020600020905b81548152906001019060200180831161113857829003601f168201915b50505050508152602001600382018054600181600116156101000203166002900480601f0160208091040260200160405190810160405280929190818152602001828054600181600116156101000203166002900480156111f75780601f106111cc576101008083540402835291602001916111f7565b820191906000526020600020905b8154815290600101906020018083116111da57829003601f168201915b5050505050815260200160048201548152602001600582015481526020016006820160009054906101000a900473ffffffffffffffffffffffffffffffffffffffff1673ffffffffffffffffffffffffffffffffffffffff1673ffffffffffffffffffffffffffffffffffffffff1681526020016006820160149054906101000a900460ff161515151581525050905060008160c001519050600082602001511180156112a957506001548260200151105b6112b257600080fd5b81608001513410156112c357600080fd5b6000826000015190506112d4614836565b600460008381526020019081526020016000206040518061014001604052908160008201548152602001600182018054600181600116156101000203166002900480601f0160208091040260200160405190810160405280929190818152602001828054600181600116156101000203166002900480156113965780601f1061136b57610100808354040283529160200191611396565b820191906000526020600020905b81548152906001019060200180831161137957829003601f168201915b50505050508152602001600282018054600181600116156101000203166002900480601f0160208091040260200160405190810160405280929190818152602001828054600181600116156101000203166002900480156114385780601f1061140d57610100808354040283529160200191611438565b820191906000526020600020905b81548152906001019060200180831161141b57829003601f168201915b50505050508152602001600382018054600181600116156101000203166002900480601f0160208091040260200160405190810160405280929190818152602001828054600181600116156101000203166002900480156114da5780601f106114af576101008083540402835291602001916114da565b820191906000526020600020905b8154815290600101906020018083116114bd57829003601f168201915b505050505081526020016004820160009054906101000a900473ffffffffffffffffffffffffffffffffffffffff1673ffffffffffffffffffffffffffffffffffffffff1673ffffffffffffffffffffffffffffffffffffffff168152602001600582018054600181600116156101000203166002900480601f0160208091040260200160405190810160405280929190818152602001828054600181600116156101000203166002900480156115d25780601f106115a7576101008083540402835291602001916115d2565b820191906000526020600020905b8154815290600101906020018083116115b557829003601f168201915b5050505050815260200160068201548152602001600782018054600181600116156101000203166002900480601f01602080910402602001604051908101604052809291908181526020018280546001816001161561010002031660029004801561167e5780601f106116535761010080835404028352916020019161167e565b820191906000526020600020905b81548152906001019060200180831161166157829003601f168201915b505050505081526020016008820160009054906101000a900460ff161515151581526020016008820160019054906101000a900460ff1615151515815250509050600081608001519050816101200151156116d857600080fd5b3373ffffffffffffffffffffffffffffffffffffffff168173ffffffffffffffffffffffffffffffffffffffff16141561171157600080fd5b600073c55961b8ead792670e5393418950be7597d521ed9050338660c0019073ffffffffffffffffffffffffffffffffffffffff16908173ffffffffffffffffffffffffffffffffffffffff16815250506001836101200190151590811515815250506040518060400160405280600d81526020017f4e4f5420415641494c41424c45000000000000000000000000000000000000008152508360e001819052508560c00151836080019073ffffffffffffffffffffffffffffffffffffffff16908173ffffffffffffffffffffffffffffffffffffffff1681525050856005600089815260200190815260200160002060008201518160000155602082015181600101556040820151816002019080519060200190611832929190614759565b50606082015181600301908051906020019061184f929190614759565b506080820151816004015560a0820151816005015560c08201518160060160006101000a81548173ffffffffffffffffffffffffffffffffffffffff021916908373ffffffffffffffffffffffffffffffffffffffff16021790555060e08201518160060160146101000a81548160ff0219169083151502179055509050508260046000868152602001908152602001600020600082015181600001556020820151816001019080519060200190611908929190614759565b506040820151816002019080519060200190611925929190614759565b506060820151816003019080519060200190611942929190614759565b5060808201518160040160006101000a81548173ffffffffffffffffffffffffffffffffffffffff021916908373ffffffffffffffffffffffffffffffffffffffff16021790555060a08201518160050190805190602001906119a6929190614759565b5060c0820151816006015560e08201518160070190805190602001906119cd929190614759565b506101008201518160080160006101000a81548160ff0219169083151502179055506101208201518160080160016101000a81548160ff0219169083151502179055509050508073ffffffffffffffffffffffffffffffffffffffff166108fc349081150290604051600060405180830381858888f19350505050158015611a59573d6000803e3d6000fd5b50604051806080016040528060035481526020018581526020018673ffffffffffffffffffffffffffffffffffffffff16815260200142815250600760006003548152602001908152602001600020600082015181600001556020820151816001015560408201518160020160006101000a81548173ffffffffffffffffffffffffffffffffffffffff021916908373ffffffffffffffffffffffffffffffffffffffff160217905550606082015181600301559050506003600081548092919060010191905055507f14851946c8230dba67134f590e985f2b78c5a50638089913f5583098921aa8e8600354858442604051808581526020018481526020018373ffffffffffffffffffffffffffffffffffffffff1673ffffffffffffffffffffffffffffffffffffffff16815260200182815260200194505050505060405180910390a17f1ae9867b6671e9200deb966cd052dcf71a924ddcb7fb1380e42ac4fb076ad0b46001548760400151886060015189608001518a60a00151336040518087815260200180602001806020018681526020018581526020018473ffffffffffffffffffffffffffffffffffffffff1673ffffffffffffffffffffffffffffffffffffffff168152602001838103835288818151815260200191508051906020019080838360005b83811015611c60578082015181840152602081019050611c45565b50505050905090810190601f168015611c8d5780820380516001836020036101000a031916815260200191505b50838103825287818151815260200191508051906020019080838360005b83811015611cc6578082015181840152602081019050611cab565b50505050905090810190601f168015611cf35780820380516001836020036101000a031916815260200191505b509850505050505050505060405180910390a150505050505050565b6040518060400160405280600481526020017f53414c4500000000000000000000000000000000000000000000000000000000815250600460008381526020019081526020016000206007019080519060200190611d6e9291906148a3565b507fae36074216998a0470a1f95447d4d5e3af6ce39ee8bc690c5923e76601485911600054600460008481526020019081526020016000206001016004600085815260200190815260200160002060020160046000868152602001908152602001600020600301600460008781526020019081526020016000206007016004600088815260200190815260200160002060080160019054906101000a900460ff1660405180878152602001806020018060200180602001806020018615151515815260200185810385528a818154600181600116156101000203166002900481526020019150805460018160011615610100020316600290048015611eb45780601f10611e8957610100808354040283529160200191611eb4565b820191906000526020600020905b815481529060010190602001808311611e9757829003601f168201915b5050858103845289818154600181600116156101000203166002900481526020019150805460018160011615610100020316600290048015611f375780601f10611f0c57610100808354040283529160200191611f37565b820191906000526020600020905b815481529060010190602001808311611f1a57829003601f168201915b5050858103835288818154600181600116156101000203166002900481526020019150805460018160011615610100020316600290048015611fba5780601f10611f8f57610100808354040283529160200191611fba565b820191906000526020600020905b815481529060010190602001808311611f9d57829003601f168201915b505085810382528781815460018160011615610100020316600290048152602001915080546001816001161561010002031660029004801561203d5780601f106120125761010080835404028352916020019161203d565b820191906000526020600020905b81548152906001019060200180831161202057829003601f168201915b50509a505050505050505050505060405180910390a150565b6040518060400160405280600481526020017f52454e54000000000000000000000000000000000000000000000000000000008152506004600083815260200190815260200160002060070190805190602001906120b59291906148a3565b507fae36074216998a0470a1f95447d4d5e3af6ce39ee8bc690c5923e76601485911600054600460008481526020019081526020016000206001016004600085815260200190815260200160002060020160046000868152602001908152602001600020600301600460008781526020019081526020016000206007016004600088815260200190815260200160002060080160019054906101000a900460ff1660405180878152602001806020018060200180602001806020018615151515815260200185810385528a8181546001816001161561010002031660029004815260200191508054600181600116156101000203166002900480156121fb5780601f106121d0576101008083540402835291602001916121fb565b820191906000526020600020905b8154815290600101906020018083116121de57829003601f168201915b505085810384528981815460018160011615610100020316600290048152602001915080546001816001161561010002031660029004801561227e5780601f106122535761010080835404028352916020019161227e565b820191906000526020600020905b81548152906001019060200180831161226157829003601f168201915b50508581038352888181546001816001161561010002031660029004815260200191508054600181600116156101000203166002900480156123015780601f106122d657610100808354040283529160200191612301565b820191906000526020600020905b8154815290600101906020018083116122e457829003601f168201915b50508581038252878181546001816001161561010002031660029004815260200191508054600181600116156101000203166002900480156123845780601f1061235957610100808354040283529160200191612384565b820191906000526020600020905b81548152906001019060200180831161236757829003601f168201915b50509a505050505050505050505060405180910390a150565b60016004600083815260200190815260200160002060080160006101000a81548160ff021916908315150217905550604051806080016040528060035481526020018281526020016004600084815260200190815260200160002060040160009054906101000a900473ffffffffffffffffffffffffffffffffffffffff1673ffffffffffffffffffffffffffffffffffffffff16815260200142815250600760006003548152602001908152602001600020600082015181600001556020820151816001015560408201518160020160006101000a81548173ffffffffffffffffffffffffffffffffffffffff021916908373ffffffffffffffffffffffffffffffffffffffff160217905550606082015181600301559050506003600081548092919060010191905055507f14851946c8230dba67134f590e985f2b78c5a50638089913f5583098921aa8e8600354826004600085815260200190815260200160002060040160009054906101000a900473ffffffffffffffffffffffffffffffffffffffff1642604051808581526020018481526020018373ffffffffffffffffffffffffffffffffffffffff1673ffffffffffffffffffffffffffffffffffffffff16815260200182815260200194505050505060405180910390a17ffe8f0317332db729ad1f6b581cb57f057d26881bcce8365898636b92a92b281860046000838152602001908152602001600020600001546004600084815260200190815260200160002060010160046000858152602001908152602001600020600201600460008681526020019081526020016000206003016004600087815260200190815260200160002060040160009054906101000a900473ffffffffffffffffffffffffffffffffffffffff16600460008881526020019081526020016000206005014260006001604051808a81526020018060200180602001806020018973ffffffffffffffffffffffffffffffffffffffff1673ffffffffffffffffffffffffffffffffffffffff1681526020018060200188815260200180602001881515151581526020018715151515815260200186810386528e8181546001816001161561010002031660029004815260200191508054600181600116156101000203166002900480156127345780601f1061270957610100808354040283529160200191612734565b820191906000526020600020905b81548152906001019060200180831161271757829003601f168201915b505086810385528d8181546001816001161561010002031660029004815260200191508054600181600116156101000203166002900480156127b75780601f1061278c576101008083540402835291602001916127b7565b820191906000526020600020905b81548152906001019060200180831161279a57829003601f168201915b505086810384528c81815460018160011615610100020316600290048152602001915080546001816001161561010002031660029004801561283a5780601f1061280f5761010080835404028352916020019161283a565b820191906000526020600020905b81548152906001019060200180831161281d57829003601f168201915b505086810383528a8181546001816001161561010002031660029004815260200191508054600181600116156101000203166002900480156128bd5780601f10612892576101008083540402835291602001916128bd565b820191906000526020600020905b8154815290600101906020018083116128a057829003601f168201915b50508681038252600d8152602001807f4e4f5420415641494c41424c45000000000000000000000000000000000000008152506020019e50505050505050505050505050505060405180910390a150565b6005602052806000526040600020600091509050806000015490806001015490806002018054600181600116156101000203166002900480601f0160208091040260200160405190810160405280929190818152602001828054600181600116156101000203166002900480156129c65780601f1061299b576101008083540402835291602001916129c6565b820191906000526020600020905b8154815290600101906020018083116129a957829003601f168201915b505050505090806003018054600181600116156101000203166002900480601f016020809104026020016040519081016040528092919081815260200182805460018160011615610100020316600290048015612a645780601f10612a3957610100808354040283529160200191612a64565b820191906000526020600020905b815481529060010190602001808311612a4757829003601f168201915b5050505050908060040154908060050154908060060160009054906101000a900473ffffffffffffffffffffffffffffffffffffffff16908060060160149054906101000a900460ff16905088565b60016005600083815260200190815260200160002060060160146101000a81548160ff0219169083151502179055507fae36074216998a0470a1f95447d4d5e3af6ce39ee8bc690c5923e76601485911600054600460008481526020019081526020016000206001016004600085815260200190815260200160002060020160046000868152602001908152602001600020600301600460008781526020019081526020016000206007016004600088815260200190815260200160002060080160019054906101000a900460ff1660405180878152602001806020018060200180602001806020018615151515815260200185810385528a818154600181600116156101000203166002900481526020019150805460018160011615610100020316600290048015612c275780601f10612bfc57610100808354040283529160200191612c27565b820191906000526020600020905b815481529060010190602001808311612c0a57829003601f168201915b5050858103845289818154600181600116156101000203166002900481526020019150805460018160011615610100020316600290048015612caa5780601f10612c7f57610100808354040283529160200191612caa565b820191906000526020600020905b815481529060010190602001808311612c8d57829003601f168201915b5050858103835288818154600181600116156101000203166002900481526020019150805460018160011615610100020316600290048015612d2d5780601f10612d0257610100808354040283529160200191612d2d565b820191906000526020600020905b815481529060010190602001808311612d1057829003601f168201915b5050858103825287818154600181600116156101000203166002900481526020019150805460018160011615610100020316600290048015612db05780601f10612d8557610100808354040283529160200191612db0565b820191906000526020600020905b815481529060010190602001808311612d9357829003601f168201915b50509a505050505050505050505060405180910390a150565b6006602052806000526040600020600091509050806000015490806001015490806002018054600181600116156101000203166002900480601f016020809104026020016040519081016040528092919081815260200182805460018160011615610100020316600290048015612e815780601f10612e5657610100808354040283529160200191612e81565b820191906000526020600020905b815481529060010190602001808311612e6457829003601f168201915b505050505090806003018054600181600116156101000203166002900480601f016020809104026020016040519081016040528092919081815260200182805460018160011615610100020316600290048015612f1f5780601f10612ef457610100808354040283529160200191612f1f565b820191906000526020600020905b815481529060010190602001808311612f0257829003601f168201915b5050505050908060040154908060050154908060060160009054906101000a900473ffffffffffffffffffffffffffffffffffffffff16908060060160149054906101000a900460ff16905088565b60405180610140016040528060005481526020018681526020018581526020018381526020018473ffffffffffffffffffffffffffffffffffffffff1681526020018281526020014281526020016040518060400160405280600d81526020017f4e4f5420415641494c41424c45000000000000000000000000000000000000008152508152602001600015158152602001600015158152506004600080548152602001908152602001600020600082015181600001556020820151816001019080519060200190613041929190614759565b50604082015181600201908051906020019061305e929190614759565b50606082015181600301908051906020019061307b929190614759565b5060808201518160040160006101000a81548173ffffffffffffffffffffffffffffffffffffffff021916908373ffffffffffffffffffffffffffffffffffffffff16021790555060a08201518160050190805190602001906130df929190614759565b5060c0820151816006015560e0820151816007019080519060200190613106929190614759565b506101008201518160080160006101000a81548160ff0219169083151502179055506101208201518160080160016101000a81548160ff02191690831515021790555090505060008081548092919060010191905055507ffe8f0317332db729ad1f6b581cb57f057d26881bcce8365898636b92a92b2818600054868685878642600080604051808a81526020018060200180602001806020018973ffffffffffffffffffffffffffffffffffffffff1673ffffffffffffffffffffffffffffffffffffffff1681526020018060200188815260200180602001881515151581526020018715151515815260200186810386528e818151815260200191508051906020019080838360005b8381101561322c578082015181840152602081019050613211565b50505050905090810190601f1680156132595780820380516001836020036101000a031916815260200191505b5086810385528d818151815260200191508051906020019080838360005b83811015613292578082015181840152602081019050613277565b50505050905090810190601f1680156132bf5780820380516001836020036101000a031916815260200191505b5086810384528c818151815260200191508051906020019080838360005b838110156132f85780820151818401526020810190506132dd565b50505050905090810190601f1680156133255780820380516001836020036101000a031916815260200191505b5086810383528a818151815260200191508051906020019080838360005b8381101561335e578082015181840152602081019050613343565b50505050905090810190601f16801561338b5780820380516001836020036101000a031916815260200191505b508681038252600d8152602001807f4e4f5420415641494c41424c45000000000000000000000000000000000000008152506020019e50505050505050505050505050505060405180910390a15050505050565b60035481565b60025481565b60085481565b806008819055507f5fb13207eec1987e0b86bfb4c58fbb2129462726a93be9c96f17b12cce49dcde600854600054600460008581526020019081526020016000206001016004600086815260200190815260200160002060020160046000878152602001908152602001600020600301600460008881526020019081526020016000206007016004600089815260200190815260200160002060080160019054906101000a900460ff1660405180888152602001878152602001806020018060200180602001806020018615151515815260200185810385528a8181546001816001161561010002031660029004815260200191508054600181600116156101000203166002900480156135465780601f1061351b57610100808354040283529160200191613546565b820191906000526020600020905b81548152906001019060200180831161352957829003601f168201915b50508581038452898181546001816001161561010002031660029004815260200191508054600181600116156101000203166002900480156135c95780601f1061359e576101008083540402835291602001916135c9565b820191906000526020600020905b8154815290600101906020018083116135ac57829003601f168201915b505085810383528881815460018160011615610100020316600290048152602001915080546001816001161561010002031660029004801561364c5780601f106136215761010080835404028352916020019161364c565b820191906000526020600020905b81548152906001019060200180831161362f57829003601f168201915b50508581038252878181546001816001161561010002031660029004815260200191508054600181600116156101000203166002900480156136cf5780601f106136a4576101008083540402835291602001916136cf565b820191906000526020600020905b8154815290600101906020018083116136b257829003601f168201915b50509b50505050505050505050505060405180910390a150565b60015481565b60005481565b60076020528060005260406000206000915090508060000154908060010154908060020160009054906101000a900473ffffffffffffffffffffffffffffffffffffffff16908060030154905084565b6004602052806000526040600020600091509050806000015490806001018054600181600116156101000203166002900480601f0160208091040260200160405190810160405280929190818152602001828054600181600116156101000203166002900480156137f75780601f106137cc576101008083540402835291602001916137f7565b820191906000526020600020905b8154815290600101906020018083116137da57829003601f168201915b505050505090806002018054600181600116156101000203166002900480601f0160208091040260200160405190810160405280929190818152602001828054600181600116156101000203166002900480156138955780601f1061386a57610100808354040283529160200191613895565b820191906000526020600020905b81548152906001019060200180831161387857829003601f168201915b505050505090806003018054600181600116156101000203166002900480601f0160208091040260200160405190810160405280929190818152602001828054600181600116156101000203166002900480156139335780601f1061390857610100808354040283529160200191613933565b820191906000526020600020905b81548152906001019060200180831161391657829003601f168201915b5050505050908060040160009054906101000a900473ffffffffffffffffffffffffffffffffffffffff1690806005018054600181600116156101000203166002900480601f0160208091040260200160405190810160405280929190818152602001828054600181600116156101000203166002900480156139f75780601f106139cc576101008083540402835291602001916139f7565b820191906000526020600020905b8154815290600101906020018083116139da57829003601f168201915b505050505090806006015490806007018054600181600116156101000203166002900480601f016020809104026020016040519081016040528092919081815260200182805460018160011615610100020316600290048015613a9b5780601f10613a7057610100808354040283529160200191613a9b565b820191906000526020600020905b815481529060010190602001808311613a7e57829003601f168201915b5050505050908060080160009054906101000a900460ff16908060080160019054906101000a900460ff1690508a565b613ad36147d9565b60056000838152602001908152602001600020604051806101000160405290816000820154815260200160018201548152602001600282018054600181600116156101000203166002900480601f016020809104026020016040519081016040528092919081815260200182805460018160011615610100020316600290048015613b9f5780601f10613b7457610100808354040283529160200191613b9f565b820191906000526020600020905b815481529060010190602001808311613b8257829003601f168201915b50505050508152602001600382018054600181600116156101000203166002900480601f016020809104026020016040519081016040528092919081815260200182805460018160011615610100020316600290048015613c415780601f10613c1657610100808354040283529160200191613c41565b820191906000526020600020905b815481529060010190602001808311613c2457829003601f168201915b5050505050815260200160048201548152602001600582015481526020016006820160009054906101000a900473ffffffffffffffffffffffffffffffffffffffff1673ffffffffffffffffffffffffffffffffffffffff1673ffffffffffffffffffffffffffffffffffffffff1681526020016006820160149054906101000a900460ff161515151581525050905060008160c00151905060008260200151118015613cf357506001548260200151105b613cfc57600080fd5b8160800151341015613d0d57600080fd5b600082600001519050613d1e614836565b600460008381526020019081526020016000206040518061014001604052908160008201548152602001600182018054600181600116156101000203166002900480601f016020809104026020016040519081016040528092919081815260200182805460018160011615610100020316600290048015613de05780601f10613db557610100808354040283529160200191613de0565b820191906000526020600020905b815481529060010190602001808311613dc357829003601f168201915b50505050508152602001600282018054600181600116156101000203166002900480601f016020809104026020016040519081016040528092919081815260200182805460018160011615610100020316600290048015613e825780601f10613e5757610100808354040283529160200191613e82565b820191906000526020600020905b815481529060010190602001808311613e6557829003601f168201915b50505050508152602001600382018054600181600116156101000203166002900480601f016020809104026020016040519081016040528092919081815260200182805460018160011615610100020316600290048015613f245780601f10613ef957610100808354040283529160200191613f24565b820191906000526020600020905b815481529060010190602001808311613f0757829003601f168201915b505050505081526020016004820160009054906101000a900473ffffffffffffffffffffffffffffffffffffffff1673ffffffffffffffffffffffffffffffffffffffff1673ffffffffffffffffffffffffffffffffffffffff168152602001600582018054600181600116156101000203166002900480601f01602080910402602001604051908101604052809291908181526020018280546001816001161561010002031660029004801561401c5780601f10613ff15761010080835404028352916020019161401c565b820191906000526020600020905b815481529060010190602001808311613fff57829003601f168201915b5050505050815260200160068201548152602001600782018054600181600116156101000203166002900480601f0160208091040260200160405190810160405280929190818152602001828054600181600116156101000203166002900480156140c85780601f1061409d576101008083540402835291602001916140c8565b820191906000526020600020905b8154815290600101906020018083116140ab57829003601f168201915b505050505081526020016008820160009054906101000a900460ff161515151581526020016008820160019054906101000a900460ff16151515158152505090506000816080015190508161012001511561412257600080fd5b3373ffffffffffffffffffffffffffffffffffffffff168173ffffffffffffffffffffffffffffffffffffffff16141561415b57600080fd5b600073c55961b8ead792670e5393418950be7597d521ed9050338660c0019073ffffffffffffffffffffffffffffffffffffffff16908173ffffffffffffffffffffffffffffffffffffffff16815250506001836101200190151590811515815250506040518060400160405280600d81526020017f4e4f5420415641494c41424c45000000000000000000000000000000000000008152508360e001819052508560c00151836080019073ffffffffffffffffffffffffffffffffffffffff16908173ffffffffffffffffffffffffffffffffffffffff168152505085600560008981526020019081526020016000206000820151816000015560208201518160010155604082015181600201908051906020019061427c929190614759565b506060820151816003019080519060200190614299929190614759565b506080820151816004015560a0820151816005015560c08201518160060160006101000a81548173ffffffffffffffffffffffffffffffffffffffff021916908373ffffffffffffffffffffffffffffffffffffffff16021790555060e08201518160060160146101000a81548160ff0219169083151502179055509050508260046000868152602001908152602001600020600082015181600001556020820151816001019080519060200190614352929190614759565b50604082015181600201908051906020019061436f929190614759565b50606082015181600301908051906020019061438c929190614759565b5060808201518160040160006101000a81548173ffffffffffffffffffffffffffffffffffffffff021916908373ffffffffffffffffffffffffffffffffffffffff16021790555060a08201518160050190805190602001906143f0929190614759565b5060c0820151816006015560e0820151816007019080519060200190614417929190614759565b506101008201518160080160006101000a81548160ff0219169083151502179055506101208201518160080160016101000a81548160ff0219169083151502179055509050508173ffffffffffffffffffffffffffffffffffffffff166108fc349081150290604051600060405180830381858888f193505050501580156144a3573d6000803e3d6000fd5b50604051806080016040528060035481526020018581526020018673ffffffffffffffffffffffffffffffffffffffff16815260200142815250600760006003548152602001908152602001600020600082015181600001556020820151816001015560408201518160020160006101000a81548173ffffffffffffffffffffffffffffffffffffffff021916908373ffffffffffffffffffffffffffffffffffffffff160217905550606082015181600301559050506003600081548092919060010191905055507f14851946c8230dba67134f590e985f2b78c5a50638089913f5583098921aa8e8600354858442604051808581526020018481526020018373ffffffffffffffffffffffffffffffffffffffff1673ffffffffffffffffffffffffffffffffffffffff16815260200182815260200194505050505060405180910390a17f1ae9867b6671e9200deb966cd052dcf71a924ddcb7fb1380e42ac4fb076ad0b46001548760400151886060015189608001518a60a00151336040518087815260200180602001806020018681526020018581526020018473ffffffffffffffffffffffffffffffffffffffff1673ffffffffffffffffffffffffffffffffffffffff168152602001838103835288818151815260200191508051906020019080838360005b838110156146aa57808201518184015260208101905061468f565b50505050905090810190601f1680156146d75780820380516001836020036101000a031916815260200191505b50838103825287818151815260200191508051906020019080838360005b838110156147105780820151818401526020810190506146f5565b50505050905090810190601f16801561473d5780820380516001836020036101000a031916815260200191505b509850505050505050505060405180910390a150505050505050565b828054600181600116156101000203166002900490600052602060002090601f016020900481019282601f1061479a57805160ff19168380011785556147c8565b828001600101855582156147c8579182015b828111156147c75782518255916020019190600101906147ac565b5b5090506147d59190614923565b5090565b604051806101000160405280600081526020016000815260200160608152602001606081526020016000815260200160008152602001600073ffffffffffffffffffffffffffffffffffffffff1681526020016000151581525090565b60405180610140016040528060008152602001606081526020016060815260200160608152602001600073ffffffffffffffffffffffffffffffffffffffff1681526020016060815260200160008152602001606081526020016000151581526020016000151581525090565b828054600181600116156101000203166002900490600052602060002090601f016020900481019282601f106148e457805160ff1916838001178555614912565b82800160010185558215614912579182015b828111156149115782518255916020019190600101906148f6565b5b50905061491f9190614923565b5090565b61494591905b80821115614941576000816000905550600101614929565b5090565b9056fea265627a7a72315820a4addbfe81edbf4e48841f3ada421ee31c072ad6bcba9f2d7d1aa2f291e5a71564736f6c634300050c0032",
  "source": "pragma solidity ^0.5.1;\ncontract freelancer{\n\n    struct property{\n        uint id;\n        string name;\n        string des;\n        string type1;\n        address payable owner;\n        string location;\n        uint256 time;\n        string status;\n        bool bstatus;\n        bool purchased;\n\n    }\n    \n    struct bid{\n        uint checkid;\n        uint bid_id;\n        string name;\n        string message;\n        uint price;\n        uint gprice;\n        address payable bidder;\n        bool status;\n    }\n   struct ledger{\n        uint id;\n        uint p_id;\n        address payable new_owner;\n        uint256 time;\n    }\n\n    \n    uint public propertyCount=0;\n    uint public bidCount=0;\n    uint public linkCount=0;\n    uint public ledgerCount=0;\n\n    mapping (uint=>property) public props;\n    mapping (uint=>bid) public bids;\n    mapping (uint=>bid) public links;\n    mapping (uint=>ledger) public ledgers;\n    \n    uint public sid=0;\n    \n    event propertyCreated(\n        uint id,\n        string name,\n        string des,\n        string type1,\n        address payable owner,\n        string location,\n        uint256 time,\n        string status,\n        bool bstatus,\n        bool purchased\n    );\n\n\n\n    event bidCreated(\n        uint checkid,\n        uint bid_id,\n        string name,\n        string message,\n        uint price,\n        uint gprice,\n        address payable bidder,\n        bool status\n\n        );\n    event bidPurchased(\n        uint bid_id,\n        string name,\n        string message,\n        uint price,\n        uint gprice,\n        address payable bidder\n        );\n\n    event Sale(\n        uint id,\n        string name,\n        string des,\n        string type1,\n        string status,\n        bool purchased\n    );\n\n    event shown(\n        uint sid,\n        uint id,\n        string name,\n        string des,\n        string type1,\n        string status,\n        bool purchased\n    );\n\n    event Rent(\n        uint id,\n        string name,\n        string des,\n        string type1,\n        address payable owner,\n        string status,\n        bool purchased\n\n    );\n\n    event Approved(\n        uint checkid,\n        uint bid_id,\n        string name,\n        string message,\n        uint price,\n        address payable bidder,\n        bool status\n    );\n    \n      event ledgerCreated(\n        uint id,\n        uint p_id,\n        address payable new_owner,\n        uint256 time\n    );\n  \n\n    function createProperty(string memory _name,string memory _des,address payable _owner,string memory _type, string memory _location)public{\n        \n        props[propertyCount]=property(propertyCount,_name,_des,_type,_owner,_location, now,\"NOT AVAILABLE\",false,false);\n        propertyCount++;\n        emit propertyCreated(propertyCount,_name,_des,_type,_owner,_location,now,\"NOT AVAILABLE\",false,false);\n    }\n\n    function verifyProperty(uint _id)public{\n        props[_id].bstatus=true;\n        ledgers[ledgerCount]=ledger(ledgerCount,_id,props[_id].owner,now);\n        ledgerCount++;\n        emit ledgerCreated(ledgerCount,_id,props[_id].owner,now);\n        emit propertyCreated(props[_id].id,props[_id].name,props[_id].des,props[_id].type1,props[_id].owner,props[_id].location,now,\"NOT AVAILABLE\",false,true);\n    }\n\n    function forSale(uint _id)public payable{\n       //require(props[_id].owner==msg.sender);\n        props[_id].status=\"SALE\";\n        emit Sale(propertyCount,props[_id].name,props[_id].des,props[_id].type1,props[_id].status,props[_id].purchased);\n    }\n\n    function show1(uint _id)public payable{\n       //require(props[_id].owner==msg.sender);\n        sid=_id;\n        emit shown(sid,propertyCount,props[_id].name,props[_id].des,props[_id].type1,props[_id].status,props[_id].purchased);\n    }\n\n    function forRent(uint _id)public payable{\n        //require(props[_id].owner==msg.sender);\n        props[_id].status=\"RENT\";\n        emit Sale(propertyCount,props[_id].name,props[_id].des,props[_id].type1,props[_id].status,props[_id].purchased);\n   }\n    function forApprove(uint _id) public payable{\n\n        bids[_id].status=true;\n        emit Sale(propertyCount,props[_id].name,props[_id].des,props[_id].type1,props[_id].status,props[_id].purchased);\n    }\n\n\n    function createBid( uint _checkid,string memory _name, string memory _message, uint _price) public{\n        bids[bidCount]=bid(_checkid,bidCount,_name,_message,_price,0, msg.sender,false);\n        uint256 t1=10;\n        uint256 t=(uint256)((_price)/t1);\n        bids[bidCount].gprice=t;\n        bidCount++;\n        //links[_checkid]=bid(bidCount,_name,_message,_time,_price, msg.sender);\n        //linkCount++;\n        emit bidCreated(_checkid,bidCount,_name,_message,_price, t , msg.sender,false);\n        \n    }\n\n\n\n     function purchaseBid(uint _id) public payable  {\n        //fetch the bid\n        bid memory _bid = bids[_id];\n        //fetch the owner \n        address payable _buyer =_bid.bidder;\n       // address payable _seller =_bid.bidder;\n        // Make sure the product id is valid\n        require (_bid.bid_id >0 && _bid.bid_id< bidCount);\n        // enough ether\n        require (msg.value >= _bid.price);\n         //fetch the work\n         uint  property_id =_bid.checkid;\n\n         property memory _property = props[property_id];\n\n         address payable _seller= _property.owner;\n         //work is not purchased\n         require (!_property.purchased);\n\n         //seller is not buyer\n         require (_seller!=msg.sender);\n         \n         address payable admin=0xc55961b8eaD792670E5393418950BE7597d521ED;\n         \n        //transfer ownership to the buyer\n         _bid.bidder= msg.sender;\n         //mark as purchased\n        _property.purchased = true;\n        _property.status=\"NOT AVAILABLE\";\n        _property.owner=_bid.bidder;\n         //update the product\n         bids[_id]=_bid;\n         props[property_id]=_property;\n         //pay the seller through ether\n         address(_seller).transfer(msg.value);\n         //address(admin).transfer(msg.value*1/10);\n         //trigger an event\n         ledgers[ledgerCount]=ledger(ledgerCount,property_id,_buyer,now);\n         ledgerCount ++;\n         emit ledgerCreated(ledgerCount,property_id,_seller,now);\n         emit bidPurchased(bidCount,_bid.name,_bid.message,_bid.price,_bid.gprice, msg.sender);\n\n    }  \n\n    function purchaseBid1(uint _id) public payable  {\n        //fetch the bid\n        bid memory _bid = bids[_id];\n        //fetch the owner \n        address payable _buyer =_bid.bidder;\n       // address payable _seller =_bid.bidder;\n        // Make sure the product id is valid\n        require (_bid.bid_id >0 && _bid.bid_id< bidCount);\n        // enough ether\n        require (msg.value >= _bid.price);\n         //fetch the work\n         uint  property_id =_bid.checkid;\n\n         property memory _property = props[property_id];\n\n         address payable _seller= _property.owner;\n         //work is not purchased\n         require (!_property.purchased);\n\n         //seller is not buyer\n         require (_seller!=msg.sender);\n         \n         address payable admin=0xc55961b8eaD792670E5393418950BE7597d521ED;\n         \n        //transfer ownership to the buyer\n         _bid.bidder= msg.sender;\n         //mark as purchased\n        _property.purchased = true;\n        _property.status=\"NOT AVAILABLE\";\n        _property.owner=_bid.bidder;\n         //update the product\n         bids[_id]=_bid;\n         props[property_id]=_property;\n         //pay the seller through ether\n         //address(_seller).transfer(msg.value);\n         address(admin).transfer(msg.value);\n         //trigger an event\n         ledgers[ledgerCount]=ledger(ledgerCount,property_id,_buyer,now);\n         ledgerCount ++;\n         emit ledgerCreated(ledgerCount,property_id,_seller,now);\n         emit bidPurchased(bidCount,_bid.name,_bid.message,_bid.price,_bid.gprice, msg.sender);\n\n    }    \n\n}",
  "sourcePath": "/home/neha/Desktop/Ethereum/ShelterHub/client/src/contracts/freelancer.sol",
  "compiler": {
    "name": "solc",
    "version": "0.5.12+commit.7709ece9.Emscripten.clang"
  },
  "schemaVersion": "3.0.20",
  "updatedAt": "2020-07-14T03:03:30.060Z",
  "networkType": "ethereum",
  "devdoc": {
    "methods": {}
  },
  "userdoc": {
    "methods": {}
  }
}